{
  "contractName": "DaiFaucet",
  "abi": [
    {
      "anonymous": false,
      "inputs": [
        {
          "indexed": true,
          "internalType": "address",
          "name": "from",
          "type": "address"
        },
        {
          "indexed": false,
          "internalType": "uint256",
          "name": "amount",
          "type": "uint256"
        }
      ],
      "name": "Deposit",
      "type": "event"
    },
    {
      "anonymous": false,
      "inputs": [
        {
          "indexed": true,
          "internalType": "address",
          "name": "to",
          "type": "address"
        },
        {
          "indexed": false,
          "internalType": "uint256",
          "name": "amount",
          "type": "uint256"
        }
      ],
      "name": "Withdrawal",
      "type": "event"
    },
    {
      "inputs": [],
      "name": "destroy",
      "outputs": [],
      "stateMutability": "nonpayable",
      "type": "function"
    },
    {
      "inputs": [
        {
          "internalType": "uint256",
          "name": "withdraw_amount",
          "type": "uint256"
        }
      ],
      "name": "withdraw",
      "outputs": [],
      "stateMutability": "nonpayable",
      "type": "function"
    },
    {
      "inputs": [],
      "name": "accetpIncoming",
      "outputs": [],
      "stateMutability": "payable",
      "type": "function"
    }
  ],
  "bytecode": "0x608060405233600160006101000a81548173ffffffffffffffffffffffffffffffffffffffff021916908373ffffffffffffffffffffffffffffffffffffffff160217905550734f96fe3b7a6cf9725f59d353f723c1bdb64ca6aa6000806101000a81548173ffffffffffffffffffffffffffffffffffffffff021916908373ffffffffffffffffffffffffffffffffffffffff16021790555061073c806100a86000396000f3fe6080604052600436106100345760003560e01c80632e1a7d4d1461003957806383197ef014610074578063b29139111461008b575b600080fd5b34801561004557600080fd5b506100726004803603602081101561005c57600080fd5b8101908080359060200190929190505050610095565b005b34801561008057600080fd5b50610089610310565b005b6100936105ad565b005b67016345785d8a00008111156100aa57600080fd5b806000809054906101000a900473ffffffffffffffffffffffffffffffffffffffff1673ffffffffffffffffffffffffffffffffffffffff166370a08231306040518263ffffffff1660e01b8152600401808273ffffffffffffffffffffffffffffffffffffffff1673ffffffffffffffffffffffffffffffffffffffff16815260200191505060206040518083038186803b15801561014957600080fd5b505afa15801561015d573d6000803e3d6000fd5b505050506040513d602081101561017357600080fd5b810190808051906020019092919050505010156101db576040517f08c379a00000000000000000000000000000000000000000000000000000000081526004018080602001828103825260358152602001806106d26035913960400191505060405180910390fd5b6000809054906101000a900473ffffffffffffffffffffffffffffffffffffffff1673ffffffffffffffffffffffffffffffffffffffff1663a9059cbb33836040518363ffffffff1660e01b8152600401808373ffffffffffffffffffffffffffffffffffffffff1673ffffffffffffffffffffffffffffffffffffffff16815260200182815260200192505050602060405180830381600087803b15801561028357600080fd5b505af1158015610297573d6000803e3d6000fd5b505050506040513d60208110156102ad57600080fd5b8101908080519060200190929190505050503373ffffffffffffffffffffffffffffffffffffffff167f7fcf532c15f0a6db0bd6d0e038bea71d30d808c7d98cb3bf7268a95bf5081b65826040518082815260200191505060405180910390a250565b600160009054906101000a900473ffffffffffffffffffffffffffffffffffffffff1673ffffffffffffffffffffffffffffffffffffffff163373ffffffffffffffffffffffffffffffffffffffff16146103b6576040517f08c379a000000000000000000000000000000000000000000000000000000000815260040180806020018281038252602e8152602001806106a4602e913960400191505060405180910390fd5b6000809054906101000a900473ffffffffffffffffffffffffffffffffffffffff1673ffffffffffffffffffffffffffffffffffffffff1663a9059cbb600160009054906101000a900473ffffffffffffffffffffffffffffffffffffffff166000809054906101000a900473ffffffffffffffffffffffffffffffffffffffff1673ffffffffffffffffffffffffffffffffffffffff166370a08231306040518263ffffffff1660e01b8152600401808273ffffffffffffffffffffffffffffffffffffffff1673ffffffffffffffffffffffffffffffffffffffff16815260200191505060206040518083038186803b1580156104b457600080fd5b505afa1580156104c8573d6000803e3d6000fd5b505050506040513d60208110156104de57600080fd5b81019080805190602001909291905050506040518363ffffffff1660e01b8152600401808373ffffffffffffffffffffffffffffffffffffffff1673ffffffffffffffffffffffffffffffffffffffff16815260200182815260200192505050602060405180830381600087803b15801561055857600080fd5b505af115801561056c573d6000803e3d6000fd5b505050506040513d602081101561058257600080fd5b8101908080519060200190929190505050503373ffffffffffffffffffffffffffffffffffffffff16ff5b600160009054906101000a900473ffffffffffffffffffffffffffffffffffffffff1673ffffffffffffffffffffffffffffffffffffffff163373ffffffffffffffffffffffffffffffffffffffff1614610653576040517f08c379a000000000000000000000000000000000000000000000000000000000815260040180806020018281038252602e8152602001806106a4602e913960400191505060405180910390fd5b3373ffffffffffffffffffffffffffffffffffffffff167fe1fffcc4923d04b559f4d29a8bfc6cda04eb5b0d3c460751c2402c5c5cc9109c346040518082815260200191505060405180910390a256fe4f6e6c792074686520636f6e7472616374206f776e65722063616e2063616c6c20746869732066756e6374696f6e496e73756666696369656e742062616c616e636520696e2066617563657420666f72207769746864726177616c2072657175657374a26469706673582212208d1ee00a53aeed96621a9b35c1355fc603c26c456e0b21a088caf2e654a5561e64736f6c63430006020033",
  "source": "pragma solidity >=0.4.22 <0.7.0;\n\ninterface DaiToken {\n    function transfer(address dst, uint wad) external returns(bool);\n    function balanceOf(address guy) external view returns(uint);\n}\n\n\ncontract owned {\n    DaiToken daitoken;\n\taddress owner;\n\n\tconstructor() public{\n\t\towner = msg.sender;\n\t\tdaitoken = DaiToken(0x4F96Fe3b7A6Cf9725f59d353F723c1bDb64CA6Aa);\n\t}\n\n\tmodifier onlyOwner {\n\t\trequire(msg.sender == owner, \"Only the contract owner can call this function\");\n\t\t_;\n\t}\n}\n\n\ncontract mortal is owned {\n\t// Only owner can shutdown this contract.\n\tfunction destroy() public onlyOwner {\n\t    daitoken.transfer(owner, daitoken.balanceOf(address(this)));\n\t    selfdestruct(msg.sender);\n\t}\n}\n\n\ncontract DaiFaucet is mortal {\n\n\tevent Withdrawal(address indexed to, uint amount);\n\tevent Deposit(address indexed from, uint amount);\n\n\n\t// Give out Dai to anyone who asks\n\tfunction withdraw(uint withdraw_amount) public {\n\t\t// Limit withdrawal amount\n\t\trequire(withdraw_amount <= 0.1 ether);\n\t\trequire(daitoken.balanceOf(address(this)) >= withdraw_amount,\n\t\t\t\"Insufficient balance in faucet for withdrawal request\");\n\t\t// Send the amount to the address that requested it\n\t\tdaitoken.transfer(msg.sender, withdraw_amount);\n\t\temit Withdrawal(msg.sender, withdraw_amount);\n\t}\n\n\t// Accept any incoming amount\n\tfunction accetpIncoming() external payable onlyOwner {\n\t\temit Deposit(msg.sender, msg.value);\n\t}\n}\n\n\n\n\n\n\n\n\n\n",
  "sourcePath": "/home/jaxcoder/Projects/hackmoney/front-end/contracts/utils/DaiFaucet2.sol",
  "compiler": {
    "name": "solc",
    "version": "0.6.2+commit.bacdbe57.Emscripten.clang"
  },
  "schemaVersion": "3.1.0",
  "updatedAt": "2020-05-16T11:11:06.063Z",
  "devdoc": {
    "methods": {}
  },
  "userdoc": {
    "methods": {}
  }
}