{
  "contractName": "iNETToken",
  "abi": [
    {
      "inputs": [],
      "stateMutability": "nonpayable",
      "type": "constructor"
    },
    {
      "inputs": [
        {
          "internalType": "uint256",
          "name": "",
          "type": "uint256"
        }
      ],
      "name": "defaultOperators",
      "outputs": [
        {
          "internalType": "address",
          "name": "",
          "type": "address"
        }
      ],
      "stateMutability": "view",
      "type": "function"
    },
    {
      "inputs": [],
      "name": "mintMinerReward",
      "outputs": [],
      "stateMutability": "nonpayable",
      "type": "function"
    }
  ],
  "bytecode": "0x608060405234801561001057600080fd5b5061011d806100206000396000f3fe6080604052348015600f57600080fd5b506004361060325760003560e01c8063a0e2cc8c146037578063d63c88a61460a2575b600080fd5b606060048036036020811015604b57600080fd5b810190808035906020019092919050505060aa565b604051808273ffffffffffffffffffffffffffffffffffffffff1673ffffffffffffffffffffffffffffffffffffffff16815260200191505060405180910390f35b60a860e5565b005b6000818154811060b657fe5b906000526020600020016000915054906101000a900473ffffffffffffffffffffffffffffffffffffffff1681565b56fea26469706673582212209b778da7b21ec803b150a6ea944e1df7704203930c93dc72ced5c20f7ad6808464736f6c63430006020033",
  "source": "pragma solidity  >=0.4.22 <0.7.0;\r\n\r\nimport \"@openzeppelin/contracts/token/ERC20/ERC20.sol\";\r\n\r\n\r\ncontract iNETToken {\r\n    address[] public defaultOperators;\r\n\r\n    function mintMinerReward() public {\r\n        //_mint(block.coinbase, 1000);\r\n    }\r\n\r\n    constructor() public {\r\n        // 1 Billion Tokens minted at creation\r\n        //_mint(msg.sender, 1000000000000000000000000000);\r\n    }\r\n\r\n\r\n\r\n}",
  "sourcePath": "C:\\Projects\\Hackathons\\HackMoney\\dev\\front-end\\contracts\\token\\erc20\\iNETToken.sol",
  "compiler": {
    "name": "solc",
    "version": "0.6.2+commit.bacdbe57.Emscripten.clang"
  },
  "schemaVersion": "3.1.0",
  "updatedAt": "2020-05-10T16:37:11.588Z",
  "devdoc": {
    "methods": {}
  },
  "userdoc": {
    "methods": {}
  }
}