{
  "contractName": "DaiFaucet",
  "abi": [
    {
      "inputs": [],
      "name": "requestDai",
      "outputs": [],
      "stateMutability": "nonpayable",
      "type": "function"
    }
  ],
  "bytecode": "0x608060405273f80a32a835f79d7787e8a8ee5721d0feafd781086000806101000a81548173ffffffffffffffffffffffffffffffffffffffff021916908373ffffffffffffffffffffffffffffffffffffffff16021790555034801561006457600080fd5b5061015e806100746000396000f3fe608060405234801561001057600080fd5b506004361061002b5760003560e01c8063b5589a7314610030575b600080fd5b61003861003a565b005b6000809054906101000a900473ffffffffffffffffffffffffffffffffffffffff1673ffffffffffffffffffffffffffffffffffffffff1663a9059cbb33670de0b6b3a76400006040518363ffffffff1660e01b8152600401808373ffffffffffffffffffffffffffffffffffffffff1673ffffffffffffffffffffffffffffffffffffffff16815260200182815260200192505050602060405180830381600087803b1580156100ea57600080fd5b505af11580156100fe573d6000803e3d6000fd5b505050506040513d602081101561011457600080fd5b81019080805190602001909291905050505056fea2646970667358221220790c8a5aea516b58f12d3bf48b097aae2e7ce166a17cf85e459f3973afabe44d64736f6c63430006020033",
  "source": "pragma solidity >=0.4.22 <0.7.0;\n\ninterface DaiToken {\n    function transfer(address dst, uint wad) external returns (bool);\n    function balanceOf(address guy) external view returns (uint);\n}\n\ncontract DaiFaucet {\n    DaiToken daiToken = DaiToken(0xf80A32A835F79D7787E8a8ee5721D0fEaFd78108); // Ropsten\n    // Mainnet DaiToken(0x6B175474E89094C44Da98b954EedeAC495271d0F);\n\n\n    function requestDai() public {\n        // Send 1 dai to requestor\n        daiToken.transfer(msg.sender, 1000000000000000000);\n    }\n}",
  "sourcePath": "/Users/jaxcoder/Documents/Blockchain/hackmoney/dev/front-end/src/contracts/utils/DaiFaucet.sol",
  "compiler": {
    "name": "solc",
    "version": "0.6.2+commit.bacdbe57.Emscripten.clang"
  },
  "schemaVersion": "3.0.23",
  "updatedAt": "2020-05-15T03:45:18.486Z",
  "devdoc": {
    "methods": {}
  },
  "userdoc": {
    "methods": {}
  }
}