{
  "contractName": "Flashloan",
  "abi": [
    {
      "inputs": [
        {
          "internalType": "address",
          "name": "_addressProvider",
          "type": "address"
        }
      ],
      "stateMutability": "nonpayable",
      "type": "constructor"
    },
    {
      "anonymous": false,
      "inputs": [
        {
          "indexed": true,
          "internalType": "address",
          "name": "_from",
          "type": "address"
        },
        {
          "indexed": true,
          "internalType": "address",
          "name": "_assetAddress",
          "type": "address"
        },
        {
          "indexed": false,
          "internalType": "uint256",
          "name": "amount",
          "type": "uint256"
        }
      ],
      "name": "LogWithdraw",
      "type": "event"
    },
    {
      "anonymous": false,
      "inputs": [
        {
          "indexed": true,
          "internalType": "address",
          "name": "previousOwner",
          "type": "address"
        },
        {
          "indexed": true,
          "internalType": "address",
          "name": "newOwner",
          "type": "address"
        }
      ],
      "name": "OwnershipTransferred",
      "type": "event"
    },
    {
      "inputs": [],
      "name": "addressesProvider",
      "outputs": [
        {
          "internalType": "contract ILendingPoolAddressesProvider",
          "name": "",
          "type": "address"
        }
      ],
      "stateMutability": "view",
      "type": "function"
    },
    {
      "inputs": [],
      "name": "owner",
      "outputs": [
        {
          "internalType": "address",
          "name": "",
          "type": "address"
        }
      ],
      "stateMutability": "view",
      "type": "function"
    },
    {
      "inputs": [],
      "name": "renounceOwnership",
      "outputs": [],
      "stateMutability": "nonpayable",
      "type": "function"
    },
    {
      "inputs": [
        {
          "internalType": "address",
          "name": "newOwner",
          "type": "address"
        }
      ],
      "name": "transferOwnership",
      "outputs": [],
      "stateMutability": "nonpayable",
      "type": "function"
    },
    {
      "inputs": [
        {
          "internalType": "address",
          "name": "_assetAddress",
          "type": "address"
        }
      ],
      "name": "withdraw",
      "outputs": [],
      "stateMutability": "nonpayable",
      "type": "function"
    },
    {
      "stateMutability": "payable",
      "type": "receive"
    },
    {
      "inputs": [
        {
          "internalType": "address",
          "name": "_reserve",
          "type": "address"
        },
        {
          "internalType": "uint256",
          "name": "_amount",
          "type": "uint256"
        },
        {
          "internalType": "uint256",
          "name": "_fee",
          "type": "uint256"
        },
        {
          "internalType": "bytes",
          "name": "_params",
          "type": "bytes"
        }
      ],
      "name": "executeOperation",
      "outputs": [],
      "stateMutability": "nonpayable",
      "type": "function"
    },
    {
      "inputs": [
        {
          "internalType": "address",
          "name": "_asset",
          "type": "address"
        }
      ],
      "name": "flashloan",
      "outputs": [],
      "stateMutability": "nonpayable",
      "type": "function"
    }
  ],
  "bytecode": "0x608060405234801561001057600080fd5b5060405161161a38038061161a8339818101604052602081101561003357600080fd5b810190808051906020019092919050505080600061005561013b60201b60201c565b9050806000806101000a81548173ffffffffffffffffffffffffffffffffffffffff021916908373ffffffffffffffffffffffffffffffffffffffff1602179055508073ffffffffffffffffffffffffffffffffffffffff16600073ffffffffffffffffffffffffffffffffffffffff167f8be0079c531659141344cd1fd0a4f28419497f9722a3daafe3b4186f6b6457e060405160405180910390a35080600160006101000a81548173ffffffffffffffffffffffffffffffffffffffff021916908373ffffffffffffffffffffffffffffffffffffffff1602179055505050610143565b600033905090565b6114c8806101526000396000f3fe6080604052600436106100745760003560e01c80638da5cb5b1161004e5780638da5cb5b14610139578063c72c4d1014610190578063ee872558146101e7578063f2fde38b146102a15761007b565b806336c404771461008057806351cff8d9146100d1578063715018a6146101225761007b565b3661007b57005b600080fd5b34801561008c57600080fd5b506100cf600480360360208110156100a357600080fd5b81019080803573ffffffffffffffffffffffffffffffffffffffff1690602001909291905050506102f2565b005b3480156100dd57600080fd5b50610120600480360360208110156100f457600080fd5b81019080803573ffffffffffffffffffffffffffffffffffffffff1690602001909291905050506105ca565b005b34801561012e57600080fd5b50610137610884565b005b34801561014557600080fd5b5061014e610a0c565b604051808273ffffffffffffffffffffffffffffffffffffffff1673ffffffffffffffffffffffffffffffffffffffff16815260200191505060405180910390f35b34801561019c57600080fd5b506101a5610a35565b604051808273ffffffffffffffffffffffffffffffffffffffff1673ffffffffffffffffffffffffffffffffffffffff16815260200191505060405180910390f35b3480156101f357600080fd5b5061029f6004803603608081101561020a57600080fd5b81019080803573ffffffffffffffffffffffffffffffffffffffff16906020019092919080359060200190929190803590602001909291908035906020019064010000000081111561025b57600080fd5b82018360208201111561026d57600080fd5b8035906020019184600183028401116401000000008311171561028f57600080fd5b9091929391929390505050610a5b565b005b3480156102ad57600080fd5b506102f0600480360360208110156102c457600080fd5b81019080803573ffffffffffffffffffffffffffffffffffffffff169060200190929190505050610ae6565b005b6102fa610cf3565b73ffffffffffffffffffffffffffffffffffffffff166000809054906101000a900473ffffffffffffffffffffffffffffffffffffffff1673ffffffffffffffffffffffffffffffffffffffff16146103bb576040517f08c379a00000000000000000000000000000000000000000000000000000000081526004018080602001828103825260208152602001807f4f776e61626c653a2063616c6c6572206973206e6f7420746865206f776e657281525060200191505060405180910390fd5b600068056bc75e2d63100000905060606040518060200160405280600081525090506000600160009054906101000a900473ffffffffffffffffffffffffffffffffffffffff1673ffffffffffffffffffffffffffffffffffffffff16630261bf8b6040518163ffffffff1660e01b815260040160206040518083038186803b15801561044757600080fd5b505afa15801561045b573d6000803e3d6000fd5b505050506040513d602081101561047157600080fd5b810190808051906020019092919050505090508073ffffffffffffffffffffffffffffffffffffffff16635cffe9de308686866040518563ffffffff1660e01b8152600401808573ffffffffffffffffffffffffffffffffffffffff1673ffffffffffffffffffffffffffffffffffffffff1681526020018473ffffffffffffffffffffffffffffffffffffffff1673ffffffffffffffffffffffffffffffffffffffff16815260200183815260200180602001828103825283818151815260200191508051906020019080838360005b8381101561055d578082015181840152602081019050610542565b50505050905090810190601f16801561058a5780820380516001836020036101000a031916815260200191505b5095505050505050600060405180830381600087803b1580156105ac57600080fd5b505af11580156105c0573d6000803e3d6000fd5b5050505050505050565b6105d2610cf3565b73ffffffffffffffffffffffffffffffffffffffff166000809054906101000a900473ffffffffffffffffffffffffffffffffffffffff1673ffffffffffffffffffffffffffffffffffffffff1614610693576040517f08c379a00000000000000000000000000000000000000000000000000000000081526004018080602001828103825260208152602001807f4f776e61626c653a2063616c6c6572206973206e6f7420746865206f776e657281525060200191505060405180910390fd5b60008073ffffffffffffffffffffffffffffffffffffffff168273ffffffffffffffffffffffffffffffffffffffff1614156107355760003090508073ffffffffffffffffffffffffffffffffffffffff163191503373ffffffffffffffffffffffffffffffffffffffff166108fc839081150290604051600060405180830381858888f1935050505015801561072e573d6000803e3d6000fd5b505061081b565b8173ffffffffffffffffffffffffffffffffffffffff166370a08231306040518263ffffffff1660e01b8152600401808273ffffffffffffffffffffffffffffffffffffffff1673ffffffffffffffffffffffffffffffffffffffff16815260200191505060206040518083038186803b1580156107b257600080fd5b505afa1580156107c6573d6000803e3d6000fd5b505050506040513d60208110156107dc57600080fd5b8101908080519060200190929190505050905061081a33828473ffffffffffffffffffffffffffffffffffffffff16610cfb9092919063ffffffff16565b5b8173ffffffffffffffffffffffffffffffffffffffff163373ffffffffffffffffffffffffffffffffffffffff167f9207361cc2a04b9c7a06691df1eb87c6a63957ae88bf01d0d18c81e3d1272099836040518082815260200191505060405180910390a35050565b61088c610cf3565b73ffffffffffffffffffffffffffffffffffffffff166000809054906101000a900473ffffffffffffffffffffffffffffffffffffffff1673ffffffffffffffffffffffffffffffffffffffff161461094d576040517f08c379a00000000000000000000000000000000000000000000000000000000081526004018080602001828103825260208152602001807f4f776e61626c653a2063616c6c6572206973206e6f7420746865206f776e657281525060200191505060405180910390fd5b600073ffffffffffffffffffffffffffffffffffffffff166000809054906101000a900473ffffffffffffffffffffffffffffffffffffffff1673ffffffffffffffffffffffffffffffffffffffff167f8be0079c531659141344cd1fd0a4f28419497f9722a3daafe3b4186f6b6457e060405160405180910390a360008060006101000a81548173ffffffffffffffffffffffffffffffffffffffff021916908373ffffffffffffffffffffffffffffffffffffffff160217905550565b60008060009054906101000a900473ffffffffffffffffffffffffffffffffffffffff16905090565b600160009054906101000a900473ffffffffffffffffffffffffffffffffffffffff1681565b610a653086610db3565b841115610abd576040517f08c379a000000000000000000000000000000000000000000000000000000000815260040180806020018281038252602e81526020018061143b602e913960400191505060405180910390fd5b6000610ad28486610edd90919063ffffffff16565b9050610ade8682610f65565b505050505050565b610aee610cf3565b73ffffffffffffffffffffffffffffffffffffffff166000809054906101000a900473ffffffffffffffffffffffffffffffffffffffff1673ffffffffffffffffffffffffffffffffffffffff1614610baf576040517f08c379a00000000000000000000000000000000000000000000000000000000081526004018080602001828103825260208152602001807f4f776e61626c653a2063616c6c6572206973206e6f7420746865206f776e657281525060200191505060405180910390fd5b600073ffffffffffffffffffffffffffffffffffffffff168173ffffffffffffffffffffffffffffffffffffffff161415610c35576040517f08c379a00000000000000000000000000000000000000000000000000000000081526004018080602001828103825260268152602001806114156026913960400191505060405180910390fd5b8073ffffffffffffffffffffffffffffffffffffffff166000809054906101000a900473ffffffffffffffffffffffffffffffffffffffff1673ffffffffffffffffffffffffffffffffffffffff167f8be0079c531659141344cd1fd0a4f28419497f9722a3daafe3b4186f6b6457e060405160405180910390a3806000806101000a81548173ffffffffffffffffffffffffffffffffffffffff021916908373ffffffffffffffffffffffffffffffffffffffff16021790555050565b600033905090565b610dae8363a9059cbb60e01b8484604051602401808373ffffffffffffffffffffffffffffffffffffffff1673ffffffffffffffffffffffffffffffffffffffff16815260200182815260200192505050604051602081830303815290604052907bffffffffffffffffffffffffffffffffffffffffffffffffffffffff19166020820180517bffffffffffffffffffffffffffffffffffffffffffffffffffffffff838183161783525050505061101c565b505050565b600073eeeeeeeeeeeeeeeeeeeeeeeeeeeeeeeeeeeeeeee73ffffffffffffffffffffffffffffffffffffffff168273ffffffffffffffffffffffffffffffffffffffff161415610e1c578273ffffffffffffffffffffffffffffffffffffffff16319050610ed7565b8173ffffffffffffffffffffffffffffffffffffffff166370a08231846040518263ffffffff1660e01b8152600401808273ffffffffffffffffffffffffffffffffffffffff1673ffffffffffffffffffffffffffffffffffffffff16815260200191505060206040518083038186803b158015610e9957600080fd5b505afa158015610ead573d6000803e3d6000fd5b505050506040513d6020811015610ec357600080fd5b810190808051906020019092919050505090505b92915050565b600080828401905083811015610f5b576040517f08c379a000000000000000000000000000000000000000000000000000000000815260040180806020018281038252601b8152602001807f536166654d6174683a206164646974696f6e206f766572666c6f77000000000081525060200191505060405180910390fd5b8091505092915050565b6000600160009054906101000a900473ffffffffffffffffffffffffffffffffffffffff1673ffffffffffffffffffffffffffffffffffffffff1663ed6ff7606040518163ffffffff1660e01b815260040160206040518083038186803b158015610fcf57600080fd5b505afa158015610fe3573d6000803e3d6000fd5b505050506040513d6020811015610ff957600080fd5b81019080805190602001909291905050509050611017818484611267565b505050565b61103b8273ffffffffffffffffffffffffffffffffffffffff166113c9565b6110ad576040517f08c379a000000000000000000000000000000000000000000000000000000000815260040180806020018281038252601f8152602001807f5361666545524332303a2063616c6c20746f206e6f6e2d636f6e74726163740081525060200191505060405180910390fd5b600060608373ffffffffffffffffffffffffffffffffffffffff16836040518082805190602001908083835b602083106110fc57805182526020820191506020810190506020830392506110d9565b6001836020036101000a0380198251168184511680821785525050505050509050019150506000604051808303816000865af19150503d806000811461115e576040519150601f19603f3d011682016040523d82523d6000602084013e611163565b606091505b5091509150816111db576040517f08c379a00000000000000000000000000000000000000000000000000000000081526004018080602001828103825260208152602001807f5361666545524332303a206c6f772d6c6576656c2063616c6c206661696c656481525060200191505060405180910390fd5b600081511115611261578080602001905160208110156111fa57600080fd5b8101908080519060200190929190505050611260576040517f08c379a000000000000000000000000000000000000000000000000000000000815260040180806020018281038252602a815260200180611469602a913960400191505060405180910390fd5b5b50505050565b73eeeeeeeeeeeeeeeeeeeeeeeeeeeeeeeeeeeeeeee73ffffffffffffffffffffffffffffffffffffffff168273ffffffffffffffffffffffffffffffffffffffff1614156113985760008373ffffffffffffffffffffffffffffffffffffffff168260405180600001905060006040518083038185875af1925050503d806000811461130f576040519150601f19603f3d011682016040523d82523d6000602084013e611314565b606091505b505090506001151581151514611392576040517f08c379a00000000000000000000000000000000000000000000000000000000081526004018080602001828103825260158152602001807f436f756c646e2774207472616e7366657220455448000000000000000000000081525060200191505060405180910390fd5b506113c4565b6113c383828473ffffffffffffffffffffffffffffffffffffffff16610cfb9092919063ffffffff16565b5b505050565b60008060007fc5d2460186f7233c927e7db2dcc703c0e500b653ca82273b7bfad8045d85a47060001b9050833f915080821415801561140b57506000801b8214155b9250505091905056fe4f776e61626c653a206e6577206f776e657220697320746865207a65726f2061646472657373496e76616c69642062616c616e63652c207761732074686520666c6173684c6f616e207375636365737366756c3f5361666545524332303a204552433230206f7065726174696f6e20646964206e6f742073756363656564a26469706673582212208a514cf454d8cdb0ff8996d4c8bd110c37ad49e0798d288b356044cc70b64ea964736f6c63430006020033",
  "source": "pragma solidity >=0.4.22 <0.7.0;\r\n\r\nimport \"./aave/FlashLoanReceiverBase.sol\";\r\nimport \"./aave/ILendingPoolAddressesProvider.sol\";\r\nimport \"./aave/ILendingPool.sol\";\r\n\r\ncontract Flashloan is FlashLoanReceiverBase {\r\n\r\n    constructor(address _addressProvider) FlashLoanReceiverBase(_addressProvider) public {}\r\n\r\n    /**\r\n        This function is called after your contract has received the flash loaned amount\r\n     */\r\n    function executeOperation(\r\n        address _reserve,\r\n        uint256 _amount,\r\n        uint256 _fee,\r\n        bytes calldata _params\r\n    )\r\n        external\r\n        override\r\n    {\r\n        require(_amount <= getBalanceInternal(address(this), _reserve), \"Invalid balance, was the flashLoan successful?\");\r\n\r\n        //\r\n        // Your logic goes here.\r\n        // !! Ensure that *this contract* has enough of `_reserve` funds to payback the `_fee` !!\r\n        //\r\n\r\n        // Pay back the loan plus the fee\r\n        uint totalDebt = _amount.add(_fee);\r\n        transferFundsBackToPoolInternal(_reserve, totalDebt);\r\n    }\r\n\r\n    /**\r\n        Flash loan 1000000000000000000 wei (1 ether) worth of `_asset`\r\n     */\r\n    function flashloan(address _asset) public onlyOwner {\r\n        //address receiver = address(this); // Can also be a separate contract\r\n        //address asset = 0x6b175474e89094c44da98b954eedeac495271d0f; // Dai\r\n        uint amount = 100 * 1e18; // 100 DAI\r\n        bytes memory params = \"\";\r\n\r\n        ILendingPool lendingPool = ILendingPool(addressesProvider.getLendingPool());\r\n        lendingPool.flashLoan(address(this), _asset, amount, params);\r\n    }\r\n}\r\n",
  "sourcePath": "C:\\Projects\\Hackathons\\HackMoney\\dev\\front-end\\contracts\\flashloan\\Flashloan.sol",
  "compiler": {
    "name": "solc",
    "version": "0.6.2+commit.bacdbe57.Emscripten.clang"
  },
  "schemaVersion": "3.1.0",
  "updatedAt": "2020-05-11T15:50:46.536Z",
  "devdoc": {
    "methods": {
      "owner()": {
        "details": "Returns the address of the current owner."
      },
      "renounceOwnership()": {
        "details": "Leaves the contract without owner. It will not be possible to call `onlyOwner` functions anymore. Can only be called by the current owner.     * NOTE: Renouncing ownership will leave the contract without an owner, thereby removing any functionality that is only available to the owner."
      },
      "transferOwnership(address)": {
        "details": "Transfers ownership of the contract to a new account (`newOwner`). Can only be called by the current owner."
      },
      "withdraw(address)": {
        "details": "Withdraw asset.",
        "params": {
          "_assetAddress": "Asset to be withdrawn."
        }
      }
    }
  },
  "userdoc": {
    "methods": {
      "executeOperation(address,uint256,uint256,bytes)": {
        "notice": "This function is called after your contract has received the flash loaned amount"
      },
      "flashloan(address)": {
        "notice": "Flash loan 1000000000000000000 wei (1 ether) worth of `_asset`"
      }
    }
  }
}