{
  "contractName": "IncomeStreamCreator",
  "abi": [
    {
      "inputs": [],
      "stateMutability": "nonpayable",
      "type": "constructor"
    },
    {
      "anonymous": false,
      "inputs": [
        {
          "indexed": true,
          "internalType": "address",
          "name": "owner",
          "type": "address"
        },
        {
          "indexed": true,
          "internalType": "address",
          "name": "spender",
          "type": "address"
        },
        {
          "indexed": false,
          "internalType": "uint256",
          "name": "value",
          "type": "uint256"
        }
      ],
      "name": "Approval",
      "type": "event"
    },
    {
      "anonymous": false,
      "inputs": [
        {
          "indexed": true,
          "internalType": "address",
          "name": "operator",
          "type": "address"
        },
        {
          "indexed": true,
          "internalType": "address",
          "name": "tokenHolder",
          "type": "address"
        }
      ],
      "name": "AuthorizedOperator",
      "type": "event"
    },
    {
      "anonymous": false,
      "inputs": [
        {
          "indexed": true,
          "internalType": "address",
          "name": "operator",
          "type": "address"
        },
        {
          "indexed": true,
          "internalType": "address",
          "name": "from",
          "type": "address"
        },
        {
          "indexed": false,
          "internalType": "uint256",
          "name": "amount",
          "type": "uint256"
        },
        {
          "indexed": false,
          "internalType": "bytes",
          "name": "data",
          "type": "bytes"
        },
        {
          "indexed": false,
          "internalType": "bytes",
          "name": "operatorData",
          "type": "bytes"
        }
      ],
      "name": "Burned",
      "type": "event"
    },
    {
      "anonymous": false,
      "inputs": [
        {
          "indexed": true,
          "internalType": "address",
          "name": "operator",
          "type": "address"
        },
        {
          "indexed": true,
          "internalType": "address",
          "name": "to",
          "type": "address"
        },
        {
          "indexed": false,
          "internalType": "uint256",
          "name": "amount",
          "type": "uint256"
        },
        {
          "indexed": false,
          "internalType": "bytes",
          "name": "data",
          "type": "bytes"
        },
        {
          "indexed": false,
          "internalType": "bytes",
          "name": "operatorData",
          "type": "bytes"
        }
      ],
      "name": "Minted",
      "type": "event"
    },
    {
      "anonymous": false,
      "inputs": [
        {
          "indexed": true,
          "internalType": "address",
          "name": "operator",
          "type": "address"
        },
        {
          "indexed": true,
          "internalType": "address",
          "name": "tokenHolder",
          "type": "address"
        }
      ],
      "name": "RevokedOperator",
      "type": "event"
    },
    {
      "anonymous": false,
      "inputs": [
        {
          "indexed": true,
          "internalType": "address",
          "name": "operator",
          "type": "address"
        },
        {
          "indexed": true,
          "internalType": "address",
          "name": "from",
          "type": "address"
        },
        {
          "indexed": true,
          "internalType": "address",
          "name": "to",
          "type": "address"
        },
        {
          "indexed": false,
          "internalType": "uint256",
          "name": "amount",
          "type": "uint256"
        },
        {
          "indexed": false,
          "internalType": "bytes",
          "name": "data",
          "type": "bytes"
        },
        {
          "indexed": false,
          "internalType": "bytes",
          "name": "operatorData",
          "type": "bytes"
        }
      ],
      "name": "Sent",
      "type": "event"
    },
    {
      "anonymous": false,
      "inputs": [
        {
          "indexed": true,
          "internalType": "address",
          "name": "from",
          "type": "address"
        },
        {
          "indexed": true,
          "internalType": "address",
          "name": "to",
          "type": "address"
        },
        {
          "indexed": false,
          "internalType": "uint256",
          "name": "value",
          "type": "uint256"
        }
      ],
      "name": "Transfer",
      "type": "event"
    },
    {
      "inputs": [
        {
          "internalType": "address",
          "name": "holder",
          "type": "address"
        },
        {
          "internalType": "address",
          "name": "spender",
          "type": "address"
        }
      ],
      "name": "allowance",
      "outputs": [
        {
          "internalType": "uint256",
          "name": "",
          "type": "uint256"
        }
      ],
      "stateMutability": "view",
      "type": "function"
    },
    {
      "inputs": [
        {
          "internalType": "address",
          "name": "spender",
          "type": "address"
        },
        {
          "internalType": "uint256",
          "name": "value",
          "type": "uint256"
        }
      ],
      "name": "approve",
      "outputs": [
        {
          "internalType": "bool",
          "name": "",
          "type": "bool"
        }
      ],
      "stateMutability": "nonpayable",
      "type": "function"
    },
    {
      "inputs": [
        {
          "internalType": "address",
          "name": "operator",
          "type": "address"
        }
      ],
      "name": "authorizeOperator",
      "outputs": [],
      "stateMutability": "nonpayable",
      "type": "function"
    },
    {
      "inputs": [
        {
          "internalType": "address",
          "name": "tokenHolder",
          "type": "address"
        }
      ],
      "name": "balanceOf",
      "outputs": [
        {
          "internalType": "uint256",
          "name": "",
          "type": "uint256"
        }
      ],
      "stateMutability": "view",
      "type": "function"
    },
    {
      "inputs": [
        {
          "internalType": "uint256",
          "name": "amount",
          "type": "uint256"
        },
        {
          "internalType": "bytes",
          "name": "data",
          "type": "bytes"
        }
      ],
      "name": "burn",
      "outputs": [],
      "stateMutability": "nonpayable",
      "type": "function"
    },
    {
      "inputs": [],
      "name": "deadline",
      "outputs": [
        {
          "internalType": "uint256",
          "name": "",
          "type": "uint256"
        }
      ],
      "stateMutability": "view",
      "type": "function"
    },
    {
      "inputs": [],
      "name": "decimals",
      "outputs": [
        {
          "internalType": "uint8",
          "name": "",
          "type": "uint8"
        }
      ],
      "stateMutability": "pure",
      "type": "function"
    },
    {
      "inputs": [],
      "name": "defaultOperators",
      "outputs": [
        {
          "internalType": "address[]",
          "name": "",
          "type": "address[]"
        }
      ],
      "stateMutability": "view",
      "type": "function"
    },
    {
      "inputs": [],
      "name": "deferment",
      "outputs": [
        {
          "internalType": "uint256",
          "name": "",
          "type": "uint256"
        }
      ],
      "stateMutability": "view",
      "type": "function"
    },
    {
      "inputs": [],
      "name": "granularity",
      "outputs": [
        {
          "internalType": "uint256",
          "name": "",
          "type": "uint256"
        }
      ],
      "stateMutability": "view",
      "type": "function"
    },
    {
      "inputs": [],
      "name": "isMember",
      "outputs": [
        {
          "internalType": "bool",
          "name": "",
          "type": "bool"
        }
      ],
      "stateMutability": "view",
      "type": "function"
    },
    {
      "inputs": [
        {
          "internalType": "address",
          "name": "operator",
          "type": "address"
        },
        {
          "internalType": "address",
          "name": "tokenHolder",
          "type": "address"
        }
      ],
      "name": "isOperatorFor",
      "outputs": [
        {
          "internalType": "bool",
          "name": "",
          "type": "bool"
        }
      ],
      "stateMutability": "view",
      "type": "function"
    },
    {
      "inputs": [],
      "name": "member",
      "outputs": [
        {
          "internalType": "address payable",
          "name": "id",
          "type": "address"
        }
      ],
      "stateMutability": "view",
      "type": "function"
    },
    {
      "inputs": [],
      "name": "name",
      "outputs": [
        {
          "internalType": "string",
          "name": "",
          "type": "string"
        }
      ],
      "stateMutability": "view",
      "type": "function"
    },
    {
      "inputs": [
        {
          "internalType": "address",
          "name": "account",
          "type": "address"
        },
        {
          "internalType": "uint256",
          "name": "amount",
          "type": "uint256"
        },
        {
          "internalType": "bytes",
          "name": "data",
          "type": "bytes"
        },
        {
          "internalType": "bytes",
          "name": "operatorData",
          "type": "bytes"
        }
      ],
      "name": "operatorBurn",
      "outputs": [],
      "stateMutability": "nonpayable",
      "type": "function"
    },
    {
      "inputs": [],
      "name": "operatorData",
      "outputs": [
        {
          "internalType": "bytes",
          "name": "",
          "type": "bytes"
        }
      ],
      "stateMutability": "view",
      "type": "function"
    },
    {
      "inputs": [
        {
          "internalType": "address",
          "name": "sender",
          "type": "address"
        },
        {
          "internalType": "address",
          "name": "recipient",
          "type": "address"
        },
        {
          "internalType": "uint256",
          "name": "amount",
          "type": "uint256"
        },
        {
          "internalType": "bytes",
          "name": "data",
          "type": "bytes"
        },
        {
          "internalType": "bytes",
          "name": "operatorData",
          "type": "bytes"
        }
      ],
      "name": "operatorSend",
      "outputs": [],
      "stateMutability": "nonpayable",
      "type": "function"
    },
    {
      "inputs": [],
      "name": "owner",
      "outputs": [
        {
          "internalType": "address",
          "name": "",
          "type": "address"
        }
      ],
      "stateMutability": "view",
      "type": "function"
    },
    {
      "inputs": [],
      "name": "priceToRegister",
      "outputs": [
        {
          "internalType": "uint256",
          "name": "",
          "type": "uint256"
        }
      ],
      "stateMutability": "view",
      "type": "function"
    },
    {
      "inputs": [
        {
          "internalType": "address",
          "name": "operator",
          "type": "address"
        }
      ],
      "name": "revokeOperator",
      "outputs": [],
      "stateMutability": "nonpayable",
      "type": "function"
    },
    {
      "inputs": [
        {
          "internalType": "address",
          "name": "recipient",
          "type": "address"
        },
        {
          "internalType": "uint256",
          "name": "amount",
          "type": "uint256"
        },
        {
          "internalType": "bytes",
          "name": "data",
          "type": "bytes"
        }
      ],
      "name": "send",
      "outputs": [],
      "stateMutability": "nonpayable",
      "type": "function"
    },
    {
      "inputs": [],
      "name": "streamTokenReceiverAddress",
      "outputs": [
        {
          "internalType": "address",
          "name": "",
          "type": "address"
        }
      ],
      "stateMutability": "view",
      "type": "function"
    },
    {
      "inputs": [],
      "name": "symbol",
      "outputs": [
        {
          "internalType": "string",
          "name": "",
          "type": "string"
        }
      ],
      "stateMutability": "view",
      "type": "function"
    },
    {
      "inputs": [],
      "name": "totalSupply",
      "outputs": [
        {
          "internalType": "uint256",
          "name": "",
          "type": "uint256"
        }
      ],
      "stateMutability": "view",
      "type": "function"
    },
    {
      "inputs": [
        {
          "internalType": "address",
          "name": "recipient",
          "type": "address"
        },
        {
          "internalType": "uint256",
          "name": "amount",
          "type": "uint256"
        }
      ],
      "name": "transfer",
      "outputs": [
        {
          "internalType": "bool",
          "name": "",
          "type": "bool"
        }
      ],
      "stateMutability": "nonpayable",
      "type": "function"
    },
    {
      "inputs": [
        {
          "internalType": "address",
          "name": "holder",
          "type": "address"
        },
        {
          "internalType": "address",
          "name": "recipient",
          "type": "address"
        },
        {
          "internalType": "uint256",
          "name": "amount",
          "type": "uint256"
        }
      ],
      "name": "transferFrom",
      "outputs": [
        {
          "internalType": "bool",
          "name": "",
          "type": "bool"
        }
      ],
      "stateMutability": "nonpayable",
      "type": "function"
    },
    {
      "inputs": [],
      "name": "userData",
      "outputs": [
        {
          "internalType": "bytes",
          "name": "",
          "type": "bytes"
        }
      ],
      "stateMutability": "view",
      "type": "function"
    },
    {
      "inputs": [
        {
          "internalType": "uint256",
          "name": "_amount",
          "type": "uint256"
        },
        {
          "internalType": "uint256",
          "name": "_duration",
          "type": "uint256"
        },
        {
          "internalType": "uint256",
          "name": "_frequency",
          "type": "uint256"
        },
        {
          "internalType": "uint256",
          "name": "_payment",
          "type": "uint256"
        },
        {
          "internalType": "address payable",
          "name": "owner",
          "type": "address"
        },
        {
          "internalType": "address[]",
          "name": "_defalultOperators",
          "type": "address[]"
        }
      ],
      "name": "createIncomeStream",
      "outputs": [],
      "stateMutability": "nonpayable",
      "type": "function"
    },
    {
      "inputs": [],
      "name": "register",
      "outputs": [],
      "stateMutability": "payable",
      "type": "function"
    },
    {
      "inputs": [
        {
          "internalType": "address",
          "name": "memberAddress",
          "type": "address"
        }
      ],
      "name": "unregister",
      "outputs": [],
      "stateMutability": "nonpayable",
      "type": "function"
    }
  ],
  "bytecode": "0x60806040523480156200001157600080fd5b506040518060400160405280600c81526020017f53747265616d20546f6b656e00000000000000000000000000000000000000008152506040518060400160405280600581526020017f694e4554730000000000000000000000000000000000000000000000000000008152506000604051908082528060200260200182016040528015620000af5781602001602082028038833980820191505090505b508260029080519060200190620000c8929190620011bc565b508160039080519060200190620000e1929190620011bc565b508060049080519060200190620000fa92919062001243565b5060008090505b600480549050811015620001ad57600160056000600484815481106200012357fe5b9060005260206000200160009054906101000a900473ffffffffffffffffffffffffffffffffffffffff1673ffffffffffffffffffffffffffffffffffffffff1673ffffffffffffffffffffffffffffffffffffffff16815260200190815260200160002060006101000a81548160ff021916908315150217905550808060010191505062000101565b50731820a4b7618bde71dce8cdc73aab6c95905fad2473ffffffffffffffffffffffffffffffffffffffff166329965a1d3060405180807f455243373737546f6b656e000000000000000000000000000000000000000000815250600b0190506040518091039020306040518463ffffffff1660e01b8152600401808473ffffffffffffffffffffffffffffffffffffffff1673ffffffffffffffffffffffffffffffffffffffff1681526020018381526020018273ffffffffffffffffffffffffffffffffffffffff1673ffffffffffffffffffffffffffffffffffffffff1681526020019350505050600060405180830381600087803b158015620002b357600080fd5b505af1158015620002c8573d6000803e3d6000fd5b50505050731820a4b7618bde71dce8cdc73aab6c95905fad2473ffffffffffffffffffffffffffffffffffffffff166329965a1d3060405180807f4552433230546f6b656e00000000000000000000000000000000000000000000815250600a0190506040518091039020306040518463ffffffff1660e01b8152600401808473ffffffffffffffffffffffffffffffffffffffff1673ffffffffffffffffffffffffffffffffffffffff1681526020018381526020018273ffffffffffffffffffffffffffffffffffffffff1673ffffffffffffffffffffffffffffffffffffffff1681526020019350505050600060405180830381600087803b158015620003d157600080fd5b505af1158015620003e6573d6000803e3d6000fd5b505050505050506200043f3369021e19e0c9bab24000006040518060400160405280601181526020017f496e697469616c20537570706c792054780000000000000000000000000000008152506200044560201b60201c565b62001340565b6200047a620004596200047f60201b60201c565b8484846040518060200160405280600081525060016200048760201b60201c565b505050565b600033905090565b600073ffffffffffffffffffffffffffffffffffffffff168673ffffffffffffffffffffffffffffffffffffffff1614156200050f576040517f08c379a000000000000000000000000000000000000000000000000000000000815260040180806020018281038252602281526020018062004daf6022913960400191505060405180910390fd5b600073ffffffffffffffffffffffffffffffffffffffff168573ffffffffffffffffffffffffffffffffffffffff161415620005b3576040517f08c379a00000000000000000000000000000000000000000000000000000000081526004018080602001828103825260208152602001807f4552433737373a2073656e6420746f20746865207a65726f206164647265737381525060200191505060405180910390fd5b6000620005c56200047f60201b60201c565b9050620005dd8188888888886200061360201b60201c565b620005f38188888888886200093960201b60201c565b6200060a8188888888888862000c6560201b60201c565b50505050505050565b6000731820a4b7618bde71dce8cdc73aab6c95905fad2473ffffffffffffffffffffffffffffffffffffffff1663aabbb8ca877f29ddb589b1fb5fc7cf394961c1adf5f8c6454761adf795e67fe149f658abe89560001b6040518363ffffffff1660e01b8152600401808373ffffffffffffffffffffffffffffffffffffffff1673ffffffffffffffffffffffffffffffffffffffff1681526020018281526020019250505060206040518083038186803b158015620006d257600080fd5b505afa158015620006e7573d6000803e3d6000fd5b505050506040513d6020811015620006fe57600080fd5b81019080805190602001909291905050509050600073ffffffffffffffffffffffffffffffffffffffff168173ffffffffffffffffffffffffffffffffffffffff161462000930578073ffffffffffffffffffffffffffffffffffffffff166375ab97828888888888886040518763ffffffff1660e01b8152600401808773ffffffffffffffffffffffffffffffffffffffff1673ffffffffffffffffffffffffffffffffffffffff1681526020018673ffffffffffffffffffffffffffffffffffffffff1673ffffffffffffffffffffffffffffffffffffffff1681526020018573ffffffffffffffffffffffffffffffffffffffff1673ffffffffffffffffffffffffffffffffffffffff1681526020018481526020018060200180602001838103835285818151815260200191508051906020019080838360005b83811015620008595780820151818401526020810190506200083c565b50505050905090810190601f168015620008875780820380516001836020036101000a031916815260200191505b50838103825284818151815260200191508051906020019080838360005b83811015620008c2578082015181840152602081019050620008a5565b50505050905090810190601f168015620008f05780820380516001836020036101000a031916815260200191505b5098505050505050505050600060405180830381600087803b1580156200091657600080fd5b505af11580156200092b573d6000803e3d6000fd5b505050505b50505050505050565b6200094d868686866200101d60201b60201c565b620009c08360405180606001604052806027815260200162004dd1602791396000808973ffffffffffffffffffffffffffffffffffffffff1673ffffffffffffffffffffffffffffffffffffffff168152602001908152602001600020546200102360201b62002af2179092919060201c565b6000808773ffffffffffffffffffffffffffffffffffffffff1673ffffffffffffffffffffffffffffffffffffffff1681526020019081526020016000208190555062000a5a836000808773ffffffffffffffffffffffffffffffffffffffff1673ffffffffffffffffffffffffffffffffffffffff16815260200190815260200160002054620010e760201b620037051790919060201c565b6000808673ffffffffffffffffffffffffffffffffffffffff1673ffffffffffffffffffffffffffffffffffffffff168152602001908152602001600020819055508373ffffffffffffffffffffffffffffffffffffffff168573ffffffffffffffffffffffffffffffffffffffff168773ffffffffffffffffffffffffffffffffffffffff167f06b541ddaa720db2b10a4d0cdac39b8d360425fc073085fac19bc82614677987868686604051808481526020018060200180602001838103835285818151815260200191508051906020019080838360005b8381101562000b5157808201518184015260208101905062000b34565b50505050905090810190601f16801562000b7f5780820380516001836020036101000a031916815260200191505b50838103825284818151815260200191508051906020019080838360005b8381101562000bba57808201518184015260208101905062000b9d565b50505050905090810190601f16801562000be85780820380516001836020036101000a031916815260200191505b509550505050505060405180910390a48373ffffffffffffffffffffffffffffffffffffffff168573ffffffffffffffffffffffffffffffffffffffff167fddf252ad1be2c89b69c2b068fc378daa952ba7f163c4a11628f55a4df523b3ef856040518082815260200191505060405180910390a3505050505050565b6000731820a4b7618bde71dce8cdc73aab6c95905fad2473ffffffffffffffffffffffffffffffffffffffff1663aabbb8ca877fb281fc8c12954d22544db45de3159a39272895b169a852b314f9cc762e44c53b60001b6040518363ffffffff1660e01b8152600401808373ffffffffffffffffffffffffffffffffffffffff1673ffffffffffffffffffffffffffffffffffffffff1681526020018281526020019250505060206040518083038186803b15801562000d2457600080fd5b505afa15801562000d39573d6000803e3d6000fd5b505050506040513d602081101562000d5057600080fd5b81019080805190602001909291905050509050600073ffffffffffffffffffffffffffffffffffffffff168173ffffffffffffffffffffffffffffffffffffffff161462000f86578073ffffffffffffffffffffffffffffffffffffffff166223de298989898989896040518763ffffffff1660e01b8152600401808773ffffffffffffffffffffffffffffffffffffffff1673ffffffffffffffffffffffffffffffffffffffff1681526020018673ffffffffffffffffffffffffffffffffffffffff1673ffffffffffffffffffffffffffffffffffffffff1681526020018573ffffffffffffffffffffffffffffffffffffffff1673ffffffffffffffffffffffffffffffffffffffff1681526020018481526020018060200180602001838103835285818151815260200191508051906020019080838360005b8381101562000eaa57808201518184015260208101905062000e8d565b50505050905090810190601f16801562000ed85780820380516001836020036101000a031916815260200191505b50838103825284818151815260200191508051906020019080838360005b8381101562000f1357808201518184015260208101905062000ef6565b50505050905090810190601f16801562000f415780820380516001836020036101000a031916815260200191505b5098505050505050505050600060405180830381600087803b15801562000f6757600080fd5b505af115801562000f7c573d6000803e3d6000fd5b5050505062001013565b8115620010125762000fb98673ffffffffffffffffffffffffffffffffffffffff166200117060201b6200378d1760201c565b1562001011576040517f08c379a000000000000000000000000000000000000000000000000000000000815260040180806020018281038252604d81526020018062004df8604d913960600191505060405180910390fd5b5b5b5050505050505050565b50505050565b6000838311158290620010d4576040517f08c379a00000000000000000000000000000000000000000000000000000000081526004018080602001828103825283818151815260200191508051906020019080838360005b83811015620010985780820151818401526020810190506200107b565b50505050905090810190601f168015620010c65780820380516001836020036101000a031916815260200191505b509250505060405180910390fd5b5060008385039050809150509392505050565b60008082840190508381101562001166576040517f08c379a000000000000000000000000000000000000000000000000000000000815260040180806020018281038252601b8152602001807f536166654d6174683a206164646974696f6e206f766572666c6f77000000000081525060200191505060405180910390fd5b8091505092915050565b60008060007fc5d2460186f7233c927e7db2dcc703c0e500b653ca82273b7bfad8045d85a47060001b9050833f9150808214158015620011b357506000801b8214155b92505050919050565b828054600181600116156101000203166002900490600052602060002090601f016020900481019282601f10620011ff57805160ff191683800117855562001230565b8280016001018555821562001230579182015b828111156200122f57825182559160200191906001019062001212565b5b5090506200123f9190620012d2565b5090565b828054828255906000526020600020908101928215620012bf579160200282015b82811115620012be5782518260006101000a81548173ffffffffffffffffffffffffffffffffffffffff021916908373ffffffffffffffffffffffffffffffffffffffff1602179055509160200191906001019062001264565b5b509050620012ce9190620012fa565b5090565b620012f791905b80821115620012f3576000816000905550600101620012d9565b5090565b90565b6200133d91905b808211156200133957600081816101000a81549073ffffffffffffffffffffffffffffffffffffffff02191690555060010162001301565b5090565b90565b613a5f80620013506000396000f3fe6080604052600436106101cd5760003560e01c8063959b8c3f116100f7578063d95b637111610095578063f6cfc24611610064578063f6cfc24614610da3578063fad8b32a14610dfa578063fc673c4f14610e4b578063fe9d930314610fd4576101cd565b8063d95b637114610b31578063dd62ed3e14610bba578063de11fb4114610c3f578063e3f6b54414610d4c576101cd565b8063a9059cbb116100d1578063a9059cbb146109d4578063afc3da3314610a47578063bea6998f14610a72578063d02982cf14610b02576101cd565b8063959b8c3f1461080157806395d89b41146108525780639bd9bbc6146108e2576101cd565b80632ec2c2461161016f57806363e660e41161013e57806363e660e41461068a57806370a08231146106b55780638d17fefd1461071a5780638da5cb5b146107aa576101cd565b80632ec2c24614610434578063313ce56714610485578063556f0dc7146104b657806362ad1b83146104e1576101cd565b806318160ddd116101ab57806318160ddd146103415780631aa3a0081461036c57806323b872dd1461037657806329dcb0cf14610409576101cd565b806306e48538146101d257806306fdde031461023e578063095ea7b3146102ce575b600080fd5b3480156101de57600080fd5b506101e76110a6565b6040518080602001828103825283818151815260200191508051906020019060200280838360005b8381101561022a57808201518184015260208101905061020f565b505050509050019250505060405180910390f35b34801561024a57600080fd5b50610253611134565b6040518080602001828103825283818151815260200191508051906020019080838360005b83811015610293578082015181840152602081019050610278565b50505050905090810190601f1680156102c05780820380516001836020036101000a031916815260200191505b509250505060405180910390f35b3480156102da57600080fd5b50610327600480360360408110156102f157600080fd5b81019080803573ffffffffffffffffffffffffffffffffffffffff169060200190929190803590602001909291905050506111d6565b604051808215151515815260200191505060405180910390f35b34801561034d57600080fd5b506103566111f9565b6040518082815260200191505060405180910390f35b610374611203565b005b34801561038257600080fd5b506103ef6004803603606081101561039957600080fd5b81019080803573ffffffffffffffffffffffffffffffffffffffff169060200190929190803573ffffffffffffffffffffffffffffffffffffffff1690602001909291908035906020019092919050505061125d565b604051808215151515815260200191505060405180910390f35b34801561041557600080fd5b5061041e6114bb565b6040518082815260200191505060405180910390f35b34801561044057600080fd5b506104836004803603602081101561045757600080fd5b81019080803573ffffffffffffffffffffffffffffffffffffffff1690602001909291905050506114c1565b005b34801561049157600080fd5b5061049a61151c565b604051808260ff1660ff16815260200191505060405180910390f35b3480156104c257600080fd5b506104cb611525565b6040518082815260200191505060405180910390f35b3480156104ed57600080fd5b50610688600480360360a081101561050457600080fd5b81019080803573ffffffffffffffffffffffffffffffffffffffff169060200190929190803573ffffffffffffffffffffffffffffffffffffffff169060200190929190803590602001909291908035906020019064010000000081111561056b57600080fd5b82018360208201111561057d57600080fd5b8035906020019184600183028401116401000000008311171561059f57600080fd5b91908080601f016020809104026020016040519081016040528093929190818152602001838380828437600081840152601f19601f8201169050808301925050505050505091929192908035906020019064010000000081111561060257600080fd5b82018360208201111561061457600080fd5b8035906020019184600183028401116401000000008311171561063657600080fd5b91908080601f016020809104026020016040519081016040528093929190818152602001838380828437600081840152601f19601f82011690508083019250505050505050919291929050505061152e565b005b34801561069657600080fd5b5061069f6115aa565b6040518082815260200191505060405180910390f35b3480156106c157600080fd5b50610704600480360360208110156106d857600080fd5b81019080803573ffffffffffffffffffffffffffffffffffffffff1690602001909291905050506115b0565b6040518082815260200191505060405180910390f35b34801561072657600080fd5b5061072f6115f8565b6040518080602001828103825283818151815260200191508051906020019080838360005b8381101561076f578082015181840152602081019050610754565b50505050905090810190601f16801561079c5780820380516001836020036101000a031916815260200191505b509250505060405180910390f35b3480156107b657600080fd5b506107bf611696565b604051808273ffffffffffffffffffffffffffffffffffffffff1673ffffffffffffffffffffffffffffffffffffffff16815260200191505060405180910390f35b34801561080d57600080fd5b506108506004803603602081101561082457600080fd5b81019080803573ffffffffffffffffffffffffffffffffffffffff1690602001909291905050506116bc565b005b34801561085e57600080fd5b50610867611933565b6040518080602001828103825283818151815260200191508051906020019080838360005b838110156108a757808201518184015260208101905061088c565b50505050905090810190601f1680156108d45780820380516001836020036101000a031916815260200191505b509250505060405180910390f35b3480156108ee57600080fd5b506109d26004803603606081101561090557600080fd5b81019080803573ffffffffffffffffffffffffffffffffffffffff169060200190929190803590602001909291908035906020019064010000000081111561094c57600080fd5b82018360208201111561095e57600080fd5b8035906020019184600183028401116401000000008311171561098057600080fd5b91908080601f016020809104026020016040519081016040528093929190818152602001838380828437600081840152601f19601f8201169050808301925050505050505091929192905050506119d5565b005b3480156109e057600080fd5b50610a2d600480360360408110156109f757600080fd5b81019080803573ffffffffffffffffffffffffffffffffffffffff169060200190929190803590602001909291905050506119ff565b604051808215151515815260200191505060405180910390f35b348015610a5357600080fd5b50610a5c611b23565b6040518082815260200191505060405180910390f35b348015610a7e57600080fd5b50610a87611b29565b6040518080602001828103825283818151815260200191508051906020019080838360005b83811015610ac7578082015181840152602081019050610aac565b50505050905090810190601f168015610af45780820380516001836020036101000a031916815260200191505b509250505060405180910390f35b348015610b0e57600080fd5b50610b17611bc7565b604051808215151515815260200191505060405180910390f35b348015610b3d57600080fd5b50610ba060048036036040811015610b5457600080fd5b81019080803573ffffffffffffffffffffffffffffffffffffffff169060200190929190803573ffffffffffffffffffffffffffffffffffffffff169060200190929190505050611bda565b604051808215151515815260200191505060405180910390f35b348015610bc657600080fd5b50610c2960048036036040811015610bdd57600080fd5b81019080803573ffffffffffffffffffffffffffffffffffffffff169060200190929190803573ffffffffffffffffffffffffffffffffffffffff169060200190929190505050611d8b565b6040518082815260200191505060405180910390f35b348015610c4b57600080fd5b50610d4a600480360360c0811015610c6257600080fd5b8101908080359060200190929190803590602001909291908035906020019092919080359060200190929190803573ffffffffffffffffffffffffffffffffffffffff16906020019092919080359060200190640100000000811115610cc757600080fd5b820183602082011115610cd957600080fd5b80359060200191846020830284011164010000000083111715610cfb57600080fd5b919080806020026020016040519081016040528093929190818152602001838360200280828437600081840152601f19601f820116905080830192505050505050509192919290505050611e12565b005b348015610d5857600080fd5b50610d61611f63565b604051808273ffffffffffffffffffffffffffffffffffffffff1673ffffffffffffffffffffffffffffffffffffffff16815260200191505060405180910390f35b348015610daf57600080fd5b50610db8611f8f565b604051808273ffffffffffffffffffffffffffffffffffffffff1673ffffffffffffffffffffffffffffffffffffffff16815260200191505060405180910390f35b348015610e0657600080fd5b50610e4960048036036020811015610e1d57600080fd5b81019080803573ffffffffffffffffffffffffffffffffffffffff169060200190929190505050611fb5565b005b348015610e5757600080fd5b50610fd260048036036080811015610e6e57600080fd5b81019080803573ffffffffffffffffffffffffffffffffffffffff1690602001909291908035906020019092919080359060200190640100000000811115610eb557600080fd5b820183602082011115610ec757600080fd5b80359060200191846001830284011164010000000083111715610ee957600080fd5b91908080601f016020809104026020016040519081016040528093929190818152602001838380828437600081840152601f19601f82011690508083019250505050505050919291929080359060200190640100000000811115610f4c57600080fd5b820183602082011115610f5e57600080fd5b80359060200191846001830284011164010000000083111715610f8057600080fd5b91908080601f016020809104026020016040519081016040528093929190818152602001838380828437600081840152601f19601f82011690508083019250505050505050919291929050505061222c565b005b348015610fe057600080fd5b506110a460048036036040811015610ff757600080fd5b81019080803590602001909291908035906020019064010000000081111561101e57600080fd5b82018360208201111561103057600080fd5b8035906020019184600183028401116401000000008311171561105257600080fd5b91908080601f016020809104026020016040519081016040528093929190818152602001838380828437600081840152601f19601f8201169050808301925050505050505091929192905050506122a4565b005b6060600480548060200260200160405190810160405280929190818152602001828054801561112a57602002820191906000526020600020905b8160009054906101000a900473ffffffffffffffffffffffffffffffffffffffff1673ffffffffffffffffffffffffffffffffffffffff16815260200190600101908083116110e0575b5050505050905090565b606060028054600181600116156101000203166002900480601f0160208091040260200160405190810160405280929190818152602001828054600181600116156101000203166002900480156111cc5780601f106111a1576101008083540402835291602001916111cc565b820191906000526020600020905b8154815290600101906020018083116111af57829003601f168201915b5050505050905090565b6000806111e16122ca565b90506111ee8185856122d2565b600191505092915050565b6000600154905090565b6001601160003373ffffffffffffffffffffffffffffffffffffffff1673ffffffffffffffffffffffffffffffffffffffff16815260200190815260200160002060006101000a81548160ff021916908315150217905550565b60008073ffffffffffffffffffffffffffffffffffffffff168373ffffffffffffffffffffffffffffffffffffffff1614156112e4576040517f08c379a00000000000000000000000000000000000000000000000000000000081526004018080602001828103825260248152602001806139456024913960400191505060405180910390fd5b600073ffffffffffffffffffffffffffffffffffffffff168473ffffffffffffffffffffffffffffffffffffffff16141561136a576040517f08c379a00000000000000000000000000000000000000000000000000000000081526004018080602001828103825260268152602001806139be6026913960400191505060405180910390fd5b60006113746122ca565b90506113a28186868660405180602001604052806000815250604051806020016040528060008152506124c9565b6113ce8186868660405180602001604052806000815250604051806020016040528060008152506127e3565b611481858261147c8660405180606001604052806029815260200161399560299139600860008c73ffffffffffffffffffffffffffffffffffffffff1673ffffffffffffffffffffffffffffffffffffffff16815260200190815260200160002060008873ffffffffffffffffffffffffffffffffffffffff1673ffffffffffffffffffffffffffffffffffffffff16815260200190815260200160002054612af29092919063ffffffff16565b6122d2565b6114af8186868660405180602001604052806000815250604051806020016040528060008152506000612bb2565b60019150509392505050565b60095481565b6000601160003373ffffffffffffffffffffffffffffffffffffffff1673ffffffffffffffffffffffffffffffffffffffff16815260200190815260200160002060006101000a81548160ff02191690831515021790555050565b60006012905090565b60006001905090565b61153f6115396122ca565b86611bda565b611594576040517f08c379a000000000000000000000000000000000000000000000000000000000815260040180806020018281038252602c815260200180613969602c913960400191505060405180910390fd5b6115a385858585856001612f4d565b5050505050565b600d5481565b60008060008373ffffffffffffffffffffffffffffffffffffffff1673ffffffffffffffffffffffffffffffffffffffff168152602001908152602001600020549050919050565b600f8054600181600116156101000203166002900480601f01602080910402602001604051908101604052809291908181526020018280546001816001161561010002031660029004801561168e5780601f106116635761010080835404028352916020019161168e565b820191906000526020600020905b81548152906001019060200180831161167157829003601f168201915b505050505081565b600b60009054906101000a900473ffffffffffffffffffffffffffffffffffffffff1681565b8073ffffffffffffffffffffffffffffffffffffffff166116db6122ca565b73ffffffffffffffffffffffffffffffffffffffff161415611748576040517f08c379a00000000000000000000000000000000000000000000000000000000081526004018080602001828103825260248152602001806138b36024913960400191505060405180910390fd5b600560008273ffffffffffffffffffffffffffffffffffffffff1673ffffffffffffffffffffffffffffffffffffffff16815260200190815260200160002060009054906101000a900460ff161561183257600760006117a66122ca565b73ffffffffffffffffffffffffffffffffffffffff1673ffffffffffffffffffffffffffffffffffffffff16815260200190815260200160002060008273ffffffffffffffffffffffffffffffffffffffff1673ffffffffffffffffffffffffffffffffffffffff16815260200190815260200160002060006101000a81549060ff02191690556118cf565b6001600660006118406122ca565b73ffffffffffffffffffffffffffffffffffffffff1673ffffffffffffffffffffffffffffffffffffffff16815260200190815260200160002060008373ffffffffffffffffffffffffffffffffffffffff1673ffffffffffffffffffffffffffffffffffffffff16815260200190815260200160002060006101000a81548160ff0219169083151502179055505b6118d76122ca565b73ffffffffffffffffffffffffffffffffffffffff168173ffffffffffffffffffffffffffffffffffffffff167ff4caeb2d6ca8932a215a353d0703c326ec2d81fc68170f320eb2ab49e9df61f960405160405180910390a350565b606060038054600181600116156101000203166002900480601f0160208091040260200160405190810160405280929190818152602001828054600181600116156101000203166002900480156119cb5780601f106119a0576101008083540402835291602001916119cb565b820191906000526020600020905b8154815290600101906020018083116119ae57829003601f168201915b5050505050905090565b6119fa6119e06122ca565b848484604051806020016040528060008152506001612f4d565b505050565b60008073ffffffffffffffffffffffffffffffffffffffff168373ffffffffffffffffffffffffffffffffffffffff161415611a86576040517f08c379a00000000000000000000000000000000000000000000000000000000081526004018080602001828103825260248152602001806139456024913960400191505060405180910390fd5b6000611a906122ca565b9050611abe8182868660405180602001604052806000815250604051806020016040528060008152506124c9565b611aea8182868660405180602001604052806000815250604051806020016040528060008152506127e3565b611b188182868660405180602001604052806000815250604051806020016040528060008152506000612bb2565b600191505092915050565b600a5481565b600e8054600181600116156101000203166002900480601f016020809104026020016040519081016040528092919081815260200182805460018160011615610100020316600290048015611bbf5780601f10611b9457610100808354040283529160200191611bbf565b820191906000526020600020905b815481529060010190602001808311611ba257829003601f168201915b505050505081565b600b60149054906101000a900460ff1681565b60008173ffffffffffffffffffffffffffffffffffffffff168373ffffffffffffffffffffffffffffffffffffffff161480611cf25750600560008473ffffffffffffffffffffffffffffffffffffffff1673ffffffffffffffffffffffffffffffffffffffff16815260200190815260200160002060009054906101000a900460ff168015611cf15750600760008373ffffffffffffffffffffffffffffffffffffffff1673ffffffffffffffffffffffffffffffffffffffff16815260200190815260200160002060008473ffffffffffffffffffffffffffffffffffffffff1673ffffffffffffffffffffffffffffffffffffffff16815260200190815260200160002060009054906101000a900460ff16155b5b80611d835750600660008373ffffffffffffffffffffffffffffffffffffffff1673ffffffffffffffffffffffffffffffffffffffff16815260200190815260200160002060008473ffffffffffffffffffffffffffffffffffffffff1673ffffffffffffffffffffffffffffffffffffffff16815260200190815260200160002060009054906101000a900460ff165b905092915050565b6000600860008473ffffffffffffffffffffffffffffffffffffffff1673ffffffffffffffffffffffffffffffffffffffff16815260200190815260200160002060008373ffffffffffffffffffffffffffffffffffffffff1673ffffffffffffffffffffffffffffffffffffffff16815260200190815260200160002054905092915050565b611e1a611203565b611f5b336001600e8054600181600116156101000203166002900480601f016020809104026020016040519081016040528092919081815260200182805460018160011615610100020316600290048015611eb65780601f10611e8b57610100808354040283529160200191611eb6565b820191906000526020600020905b815481529060010190602001808311611e9957829003601f168201915b5050505050600f8054600181600116156101000203166002900480601f016020809104026020016040519081016040528092919081815260200182805460018160011615610100020316600290048015611f515780601f10611f2657610100808354040283529160200191611f51565b820191906000526020600020905b815481529060010190602001808311611f3457829003601f168201915b50505050506130b6565b505050505050565b60138060000160009054906101000a900473ffffffffffffffffffffffffffffffffffffffff16905081565b600c60009054906101000a900473ffffffffffffffffffffffffffffffffffffffff1681565b611fbd6122ca565b73ffffffffffffffffffffffffffffffffffffffff168173ffffffffffffffffffffffffffffffffffffffff161415612041576040517f08c379a00000000000000000000000000000000000000000000000000000000081526004018080602001828103825260218152602001806138d76021913960400191505060405180910390fd5b600560008273ffffffffffffffffffffffffffffffffffffffff1673ffffffffffffffffffffffffffffffffffffffff16815260200190815260200160002060009054906101000a900460ff1615612134576001600760006120a16122ca565b73ffffffffffffffffffffffffffffffffffffffff1673ffffffffffffffffffffffffffffffffffffffff16815260200190815260200160002060008373ffffffffffffffffffffffffffffffffffffffff1673ffffffffffffffffffffffffffffffffffffffff16815260200190815260200160002060006101000a81548160ff0219169083151502179055506121c8565b600660006121406122ca565b73ffffffffffffffffffffffffffffffffffffffff1673ffffffffffffffffffffffffffffffffffffffff16815260200190815260200160002060008273ffffffffffffffffffffffffffffffffffffffff1673ffffffffffffffffffffffffffffffffffffffff16815260200190815260200160002060006101000a81549060ff02191690555b6121d06122ca565b73ffffffffffffffffffffffffffffffffffffffff168173ffffffffffffffffffffffffffffffffffffffff167f50546e66e5f44d728365dc3908c63bc5cfeeab470722c1677e3073a6ac294aa160405160405180910390a350565b61223d6122376122ca565b85611bda565b612292576040517f08c379a000000000000000000000000000000000000000000000000000000000815260040180806020018281038252602c815260200180613969602c913960400191505060405180910390fd5b61229e848484846133dd565b50505050565b6122c66122af6122ca565b8383604051806020016040528060008152506133dd565b5050565b600033905090565b600073ffffffffffffffffffffffffffffffffffffffff168373ffffffffffffffffffffffffffffffffffffffff161415612358576040517f08c379a00000000000000000000000000000000000000000000000000000000081526004018080602001828103825260258152602001806138236025913960400191505060405180910390fd5b600073ffffffffffffffffffffffffffffffffffffffff168273ffffffffffffffffffffffffffffffffffffffff1614156123de576040517f08c379a0000000000000000000000000000000000000000000000000000000008152600401808060200182810382526023815260200180613a076023913960400191505060405180910390fd5b80600860008573ffffffffffffffffffffffffffffffffffffffff1673ffffffffffffffffffffffffffffffffffffffff16815260200190815260200160002060008473ffffffffffffffffffffffffffffffffffffffff1673ffffffffffffffffffffffffffffffffffffffff168152602001908152602001600020819055508173ffffffffffffffffffffffffffffffffffffffff168373ffffffffffffffffffffffffffffffffffffffff167f8c5be1e5ebec7d5bd14f71427d1e84f3dd0314c0f7b2291e5b200ac8c7c3b925836040518082815260200191505060405180910390a3505050565b6000731820a4b7618bde71dce8cdc73aab6c95905fad2473ffffffffffffffffffffffffffffffffffffffff1663aabbb8ca877f29ddb589b1fb5fc7cf394961c1adf5f8c6454761adf795e67fe149f658abe89560001b6040518363ffffffff1660e01b8152600401808373ffffffffffffffffffffffffffffffffffffffff1673ffffffffffffffffffffffffffffffffffffffff1681526020018281526020019250505060206040518083038186803b15801561258757600080fd5b505afa15801561259b573d6000803e3d6000fd5b505050506040513d60208110156125b157600080fd5b81019080805190602001909291905050509050600073ffffffffffffffffffffffffffffffffffffffff168173ffffffffffffffffffffffffffffffffffffffff16146127da578073ffffffffffffffffffffffffffffffffffffffff166375ab97828888888888886040518763ffffffff1660e01b8152600401808773ffffffffffffffffffffffffffffffffffffffff1673ffffffffffffffffffffffffffffffffffffffff1681526020018673ffffffffffffffffffffffffffffffffffffffff1673ffffffffffffffffffffffffffffffffffffffff1681526020018573ffffffffffffffffffffffffffffffffffffffff1673ffffffffffffffffffffffffffffffffffffffff1681526020018481526020018060200180602001838103835285818151815260200191508051906020019080838360005b838110156127095780820151818401526020810190506126ee565b50505050905090810190601f1680156127365780820380516001836020036101000a031916815260200191505b50838103825284818151815260200191508051906020019080838360005b8381101561276f578082015181840152602081019050612754565b50505050905090810190601f16801561279c5780820380516001836020036101000a031916815260200191505b5098505050505050505050600060405180830381600087803b1580156127c157600080fd5b505af11580156127d5573d6000803e3d6000fd5b505050505b50505050505050565b6127ef868686866136ff565b61285a8360405180606001604052806027815260200161386a602791396000808973ffffffffffffffffffffffffffffffffffffffff1673ffffffffffffffffffffffffffffffffffffffff16815260200190815260200160002054612af29092919063ffffffff16565b6000808773ffffffffffffffffffffffffffffffffffffffff1673ffffffffffffffffffffffffffffffffffffffff168152602001908152602001600020819055506128ed836000808773ffffffffffffffffffffffffffffffffffffffff1673ffffffffffffffffffffffffffffffffffffffff1681526020019081526020016000205461370590919063ffffffff16565b6000808673ffffffffffffffffffffffffffffffffffffffff1673ffffffffffffffffffffffffffffffffffffffff168152602001908152602001600020819055508373ffffffffffffffffffffffffffffffffffffffff168573ffffffffffffffffffffffffffffffffffffffff168773ffffffffffffffffffffffffffffffffffffffff167f06b541ddaa720db2b10a4d0cdac39b8d360425fc073085fac19bc82614677987868686604051808481526020018060200180602001838103835285818151815260200191508051906020019080838360005b838110156129e25780820151818401526020810190506129c7565b50505050905090810190601f168015612a0f5780820380516001836020036101000a031916815260200191505b50838103825284818151815260200191508051906020019080838360005b83811015612a48578082015181840152602081019050612a2d565b50505050905090810190601f168015612a755780820380516001836020036101000a031916815260200191505b509550505050505060405180910390a48373ffffffffffffffffffffffffffffffffffffffff168573ffffffffffffffffffffffffffffffffffffffff167fddf252ad1be2c89b69c2b068fc378daa952ba7f163c4a11628f55a4df523b3ef856040518082815260200191505060405180910390a3505050505050565b6000838311158290612b9f576040517f08c379a00000000000000000000000000000000000000000000000000000000081526004018080602001828103825283818151815260200191508051906020019080838360005b83811015612b64578082015181840152602081019050612b49565b50505050905090810190601f168015612b915780820380516001836020036101000a031916815260200191505b509250505060405180910390fd5b5060008385039050809150509392505050565b6000731820a4b7618bde71dce8cdc73aab6c95905fad2473ffffffffffffffffffffffffffffffffffffffff1663aabbb8ca877fb281fc8c12954d22544db45de3159a39272895b169a852b314f9cc762e44c53b60001b6040518363ffffffff1660e01b8152600401808373ffffffffffffffffffffffffffffffffffffffff1673ffffffffffffffffffffffffffffffffffffffff1681526020018281526020019250505060206040518083038186803b158015612c7057600080fd5b505afa158015612c84573d6000803e3d6000fd5b505050506040513d6020811015612c9a57600080fd5b81019080805190602001909291905050509050600073ffffffffffffffffffffffffffffffffffffffff168173ffffffffffffffffffffffffffffffffffffffff1614612ec6578073ffffffffffffffffffffffffffffffffffffffff166223de298989898989896040518763ffffffff1660e01b8152600401808773ffffffffffffffffffffffffffffffffffffffff1673ffffffffffffffffffffffffffffffffffffffff1681526020018673ffffffffffffffffffffffffffffffffffffffff1673ffffffffffffffffffffffffffffffffffffffff1681526020018573ffffffffffffffffffffffffffffffffffffffff1673ffffffffffffffffffffffffffffffffffffffff1681526020018481526020018060200180602001838103835285818151815260200191508051906020019080838360005b83811015612df1578082015181840152602081019050612dd6565b50505050905090810190601f168015612e1e5780820380516001836020036101000a031916815260200191505b50838103825284818151815260200191508051906020019080838360005b83811015612e57578082015181840152602081019050612e3c565b50505050905090810190601f168015612e845780820380516001836020036101000a031916815260200191505b5098505050505050505050600060405180830381600087803b158015612ea957600080fd5b505af1158015612ebd573d6000803e3d6000fd5b50505050612f43565b8115612f4257612eeb8673ffffffffffffffffffffffffffffffffffffffff1661378d565b15612f41576040517f08c379a000000000000000000000000000000000000000000000000000000000815260040180806020018281038252604d8152602001806138f8604d913960600191505060405180910390fd5b5b5b5050505050505050565b600073ffffffffffffffffffffffffffffffffffffffff168673ffffffffffffffffffffffffffffffffffffffff161415612fd3576040517f08c379a00000000000000000000000000000000000000000000000000000000081526004018080602001828103825260228152602001806138486022913960400191505060405180910390fd5b600073ffffffffffffffffffffffffffffffffffffffff168573ffffffffffffffffffffffffffffffffffffffff161415613076576040517f08c379a00000000000000000000000000000000000000000000000000000000081526004018080602001828103825260208152602001807f4552433737373a2073656e6420746f20746865207a65726f206164647265737381525060200191505060405180910390fd5b60006130806122ca565b90506130908188888888886124c9565b61309e8188888888886127e3565b6130ad81888888888888612bb2565b50505050505050565b600073ffffffffffffffffffffffffffffffffffffffff168473ffffffffffffffffffffffffffffffffffffffff161415613159576040517f08c379a00000000000000000000000000000000000000000000000000000000081526004018080602001828103825260208152602001807f4552433737373a206d696e7420746f20746865207a65726f206164647265737381525060200191505060405180910390fd5b60006131636122ca565b905061317281600087876136ff565b6131878460015461370590919063ffffffff16565b6001819055506131de846000808873ffffffffffffffffffffffffffffffffffffffff1673ffffffffffffffffffffffffffffffffffffffff1681526020019081526020016000205461370590919063ffffffff16565b6000808773ffffffffffffffffffffffffffffffffffffffff1673ffffffffffffffffffffffffffffffffffffffff16815260200190815260200160002081905550613231816000878787876001612bb2565b8473ffffffffffffffffffffffffffffffffffffffff168173ffffffffffffffffffffffffffffffffffffffff167f2fe5be0146f74c5bce36c0b80911af6c7d86ff27e89d5cfa61fc681327954e5d868686604051808481526020018060200180602001838103835285818151815260200191508051906020019080838360005b838110156132cd5780820151818401526020810190506132b2565b50505050905090810190601f1680156132fa5780820380516001836020036101000a031916815260200191505b50838103825284818151815260200191508051906020019080838360005b83811015613333578082015181840152602081019050613318565b50505050905090810190601f1680156133605780820380516001836020036101000a031916815260200191505b509550505050505060405180910390a38473ffffffffffffffffffffffffffffffffffffffff16600073ffffffffffffffffffffffffffffffffffffffff167fddf252ad1be2c89b69c2b068fc378daa952ba7f163c4a11628f55a4df523b3ef866040518082815260200191505060405180910390a35050505050565b600073ffffffffffffffffffffffffffffffffffffffff168473ffffffffffffffffffffffffffffffffffffffff161415613463576040517f08c379a00000000000000000000000000000000000000000000000000000000081526004018080602001828103825260228152602001806138916022913960400191505060405180910390fd5b600061346d6122ca565b905061347c81866000876136ff565b61348b818660008787876124c9565b6134f6846040518060600160405280602381526020016139e4602391396000808973ffffffffffffffffffffffffffffffffffffffff1673ffffffffffffffffffffffffffffffffffffffff16815260200190815260200160002054612af29092919063ffffffff16565b6000808773ffffffffffffffffffffffffffffffffffffffff1673ffffffffffffffffffffffffffffffffffffffff1681526020019081526020016000208190555061354d846001546137d890919063ffffffff16565b6001819055508473ffffffffffffffffffffffffffffffffffffffff168173ffffffffffffffffffffffffffffffffffffffff167fa78a9be3a7b862d26933ad85fb11d80ef66b8f972d7cbba06621d583943a4098868686604051808481526020018060200180602001838103835285818151815260200191508051906020019080838360005b838110156135ef5780820151818401526020810190506135d4565b50505050905090810190601f16801561361c5780820380516001836020036101000a031916815260200191505b50838103825284818151815260200191508051906020019080838360005b8381101561365557808201518184015260208101905061363a565b50505050905090810190601f1680156136825780820380516001836020036101000a031916815260200191505b509550505050505060405180910390a3600073ffffffffffffffffffffffffffffffffffffffff168573ffffffffffffffffffffffffffffffffffffffff167fddf252ad1be2c89b69c2b068fc378daa952ba7f163c4a11628f55a4df523b3ef866040518082815260200191505060405180910390a35050505050565b50505050565b600080828401905083811015613783576040517f08c379a000000000000000000000000000000000000000000000000000000000815260040180806020018281038252601b8152602001807f536166654d6174683a206164646974696f6e206f766572666c6f77000000000081525060200191505060405180910390fd5b8091505092915050565b60008060007fc5d2460186f7233c927e7db2dcc703c0e500b653ca82273b7bfad8045d85a47060001b9050833f91508082141580156137cf57506000801b8214155b92505050919050565b600061381a83836040518060400160405280601e81526020017f536166654d6174683a207375627472616374696f6e206f766572666c6f770000815250612af2565b90509291505056fe4552433737373a20617070726f76652066726f6d20746865207a65726f20616464726573734552433737373a2073656e642066726f6d20746865207a65726f20616464726573734552433737373a207472616e7366657220616d6f756e7420657863656564732062616c616e63654552433737373a206275726e2066726f6d20746865207a65726f20616464726573734552433737373a20617574686f72697a696e672073656c66206173206f70657261746f724552433737373a207265766f6b696e672073656c66206173206f70657261746f724552433737373a20746f6b656e20726563697069656e7420636f6e747261637420686173206e6f20696d706c656d656e74657220666f7220455243373737546f6b656e73526563697069656e744552433737373a207472616e7366657220746f20746865207a65726f20616464726573734552433737373a2063616c6c6572206973206e6f7420616e206f70657261746f7220666f7220686f6c6465724552433737373a207472616e7366657220616d6f756e74206578636565647320616c6c6f77616e63654552433737373a207472616e736665722066726f6d20746865207a65726f20616464726573734552433737373a206275726e20616d6f756e7420657863656564732062616c616e63654552433737373a20617070726f766520746f20746865207a65726f2061646472657373a26469706673582212208500a13d57d1c9b3c8973747c88906adc5a722dfb66eab75c727a5585cbf3cb364736f6c634300060200334552433737373a2073656e642066726f6d20746865207a65726f20616464726573734552433737373a207472616e7366657220616d6f756e7420657863656564732062616c616e63654552433737373a20746f6b656e20726563697069656e7420636f6e747261637420686173206e6f20696d706c656d656e74657220666f7220455243373737546f6b656e73526563697069656e74",
  "source": "pragma solidity  >=0.4.22 <0.7.0;\r\n\r\n//import '@openzeppelin/contracts/token/ERC777/ERC777.sol';\r\nimport '../token/erc777/StreamToken.sol';\r\n//import '../token/erc777/StreamTokenReceiver.sol';\r\n\r\ninterface StreamTokenReceiver {\r\n    function tokensReceived(\r\n        address operator,\r\n        address from,\r\n        address to,\r\n        uint256 amount,\r\n        bytes calldata userData,\r\n        bytes calldata operatorData\r\n    ) external;\r\n\r\n    event DoneStuff(address operator, address from, address to, uint256 amount, bytes userData, bytes operatorData);\r\n}\r\n\r\n/**\r\n*   @dev IncomeStreamCreator contract\r\n*/\r\ncontract IncomeStreamCreator is StreamToken {\r\n    uint256 public deadline;\r\n    uint256 public deferment;\r\n    address public owner;\r\n    bool public isMember;\r\n    address public streamTokenReceiverAddress;\r\n    uint256 public priceToRegister;\r\n    bytes32 constant MEMBER_HASH = keccak256(\"iNET_MEMBER\");\r\n\r\n    bytes public userData;\r\n    bytes public operatorData;\r\n\r\n    StreamToken _token;\r\n\r\n    mapping(address => bool) registeredAddresses;\r\n    mapping(address => Member) memberInfoArray;\r\n\r\n    Member public member;\r\n\r\n    struct Member {\r\n        address payable id;\r\n\r\n    }\r\n\r\n    constructor ()\r\n        public\r\n    {\r\n        \r\n    }\r\n\r\n    /**\r\n    *   @dev */\r\n    function createIncomeStream(\r\n        uint256 _amount,\r\n        uint256 _duration,\r\n        uint256 _frequency,\r\n        uint256 _payment,\r\n        address payable owner,\r\n        address[] memory _defalultOperators\r\n    ) public\r\n    {\r\n        // register the user\r\n        register();\r\n\r\n        // set the owner / validate\r\n\r\n        // set the defaultOperators\r\n\r\n        // mint the 777 token for the stream\r\n        _mint(msg.sender, 1, userData, operatorData);\r\n\r\n        // transfer token to owner\r\n    }\r\n\r\n    function register() public payable {\r\n        // assign address with true for registered member\r\n        registeredAddresses[msg.sender] = true;\r\n\r\n        // do some other registration stuff...\r\n\r\n\r\n\r\n    }\r\n\r\n\r\n    function unregister(address memberAddress) public {\r\n        registeredAddresses[msg.sender] = false;\r\n    }\r\n\r\n\r\n    // function getMemberInfo(address memberAddress) public view returns(Member) {\r\n    //     // get the member info for address\r\n    //     Member _member = new Member(memberAddress);\r\n    //     _member = memberInfoArray[memberAddress];\r\n    //     return _member;\r\n    // }\r\n\r\n\r\n\r\n}\r\n\r\n\r\ncontract owned {\r\n    constructor() public { owner = msg.sender; }\r\n    address payable owner;\r\n\r\n    // This contract only defines a modifier but does not use\r\n    // it: it will be used in derived contracts.\r\n    // The function body is inserted where the special symbol\r\n    // `_;` in the definition of a modifier appears.\r\n    // This means that if the owner calls this function, the\r\n    // function is executed and otherwise, an exception is\r\n    // thrown.\r\n    modifier onlyOwner {\r\n        require(\r\n            msg.sender == owner,\r\n            \"Only owner can call this function.\"\r\n        );\r\n        _;\r\n    }\r\n}\r\n\r\ncontract destructible is owned {\r\n    // This contract inherits the `onlyOwner` modifier from\r\n    // `owned` and applies it to the `destroy` function, which\r\n    // causes that calls to `destroy` only have an effect if\r\n    // they are made by the stored owner.\r\n    function destroy() public onlyOwner {\r\n        selfdestruct(owner);\r\n    }\r\n}\r\n\r\ncontract priced {\r\n    // Modifiers can receive arguments:\r\n    modifier costs(uint price) {\r\n        if (msg.value >= price) {\r\n            _;\r\n        }\r\n    }\r\n}\r\n\r\n\r\ncontract Register is priced, destructible {\r\n    mapping (address => bool) registeredAddresses;\r\n    uint price;\r\n\r\n    constructor(uint initialPrice) public { price = initialPrice; }\r\n\r\n    // It is important to also provide the\r\n    // `payable` keyword here, otherwise the function will\r\n    // automatically reject all Ether sent to it.\r\n    function register() public payable costs(price) {\r\n        registeredAddresses[msg.sender] = true;\r\n    }\r\n\r\n    function changePrice(uint _price) public onlyOwner {\r\n        price = _price;\r\n    }\r\n}\r\n\r\ncontract Mutex {\r\n    bool locked;\r\n    modifier noReentrancy() {\r\n        require(\r\n            !locked,\r\n            \"Reentrant call.\"\r\n        );\r\n        locked = true;\r\n        _;\r\n        locked = false;\r\n    }\r\n\r\n    /// This function is protected by a mutex, which means that\r\n    /// reentrant calls from within `msg.sender.call` cannot call `f` again.\r\n    /// The `return 7` statement assigns 7 to the return value but still\r\n    /// executes the statement `locked = false` in the modifier.\r\n    function f() public noReentrancy returns (uint) {\r\n        (bool success,) = msg.sender.call(\"\");\r\n        require(success);\r\n        return 7;\r\n    }\r\n}",
  "sourcePath": "C:\\Projects\\Hackathons\\HackMoney\\dev\\front-end\\contracts\\incomestream\\IncomeStreamCreator.sol",
  "compiler": {
    "name": "solc",
    "version": "0.6.2+commit.bacdbe57.Emscripten.clang"
  },
  "schemaVersion": "3.1.0",
  "updatedAt": "2020-05-11T18:21:43.122Z",
  "devdoc": {
    "details": "IncomeStreamCreator contract",
    "methods": {
      "allowance(address,address)": {
        "details": "See {IERC20-allowance}.     * Note that operator and allowance concepts are orthogonal: operators may not have allowance, and accounts with allowance may not be operators themselves."
      },
      "approve(address,uint256)": {
        "details": "See {IERC20-approve}.     * Note that accounts cannot have allowance issued by their operators."
      },
      "authorizeOperator(address)": {
        "details": "See {IERC777-authorizeOperator}."
      },
      "balanceOf(address)": {
        "details": "Returns the amount of tokens owned by an account (`tokenHolder`)."
      },
      "burn(uint256,bytes)": {
        "details": "See {IERC777-burn}.     * Also emits a {IERC20-Transfer} event for ERC20 compatibility."
      },
      "decimals()": {
        "details": "See {ERC20-decimals}.     * Always returns 18, as per the [ERC777 EIP](https://eips.ethereum.org/EIPS/eip-777#backward-compatibility)."
      },
      "defaultOperators()": {
        "details": "See {IERC777-defaultOperators}."
      },
      "granularity()": {
        "details": "See {IERC777-granularity}.     * This implementation always returns `1`."
      },
      "isOperatorFor(address,address)": {
        "details": "See {IERC777-isOperatorFor}."
      },
      "name()": {
        "details": "See {IERC777-name}."
      },
      "operatorBurn(address,uint256,bytes,bytes)": {
        "details": "See {IERC777-operatorBurn}.     * Emits {Burned} and {IERC20-Transfer} events."
      },
      "operatorSend(address,address,uint256,bytes,bytes)": {
        "details": "See {IERC777-operatorSend}.     * Emits {Sent} and {IERC20-Transfer} events."
      },
      "revokeOperator(address)": {
        "details": "See {IERC777-revokeOperator}."
      },
      "send(address,uint256,bytes)": {
        "details": "See {IERC777-send}.     * Also emits a {IERC20-Transfer} event for ERC20 compatibility."
      },
      "symbol()": {
        "details": "See {IERC777-symbol}."
      },
      "totalSupply()": {
        "details": "See {IERC777-totalSupply}."
      },
      "transfer(address,uint256)": {
        "details": "See {IERC20-transfer}.     * Unlike `send`, `recipient` is _not_ required to implement the {IERC777Recipient} interface if it is a contract.     * Also emits a {Sent} event."
      },
      "transferFrom(address,address,uint256)": {
        "details": "See {IERC20-transferFrom}.    * Note that operator and allowance concepts are orthogonal: operators cannot call `transferFrom` (unless they have allowance), and accounts with allowance cannot call `operatorSend` (unless they are operators).    * Emits {Sent}, {IERC20-Transfer} and {IERC20-Approval} events."
      }
    }
  },
  "userdoc": {
    "methods": {}
  }
}