{
  "contractName": "OracleExample",
  "abi": [
    {
      "inputs": [],
      "name": "ethusd",
      "outputs": [
        {
          "internalType": "uint256",
          "name": "",
          "type": "uint256"
        }
      ],
      "stateMutability": "view",
      "type": "function"
    },
    {
      "inputs": [],
      "name": "update",
      "outputs": [],
      "stateMutability": "payable",
      "type": "function"
    }
  ],
  "bytecode": "0x608060405234801561001057600080fd5b50610220806100206000396000f3fe6080604052600436106100295760003560e01c806361150aae1461002e578063a2e6204514610059575b600080fd5b34801561003a57600080fd5b50610043610063565b6040518082815260200191505060405180910390f35b610061610069565b005b60005481565b600073a24df0420de1f3b8d740a52aaeb9d55d6d64478e905060008173ffffffffffffffffffffffffffffffffffffffff1663ed815d838373ffffffffffffffffffffffffffffffffffffffff1663b0667cf86040518163ffffffff1660e01b815260040160206040518083038186803b1580156100e657600080fd5b505afa1580156100fa573d6000803e3d6000fd5b505050506040513d602081101561011057600080fd5b81019080805190602001909291905050506040518263ffffffff1660e01b815260040180806020018281038252600e8152602001807f53504f5450582f4554482d5553440000000000000000000000000000000000008152506020019150506060604051808303818588803b15801561018857600080fd5b505af115801561019c573d6000803e3d6000fd5b50505050506040513d60608110156101b357600080fd5b81019080805190602001909291908051906020019092919080519060200190929190505050505090508060001c600081905550505056fea26469706673582212204e7434f1c2cd2a378d23bf2cdcc53181f15e0b5ef9f8030dd9ce018ed82cc83264736f6c63430006020033",
  "source": "pragma solidity  >=0.4.22 <0.7.0;\r\n\r\ninterface Oracle {\r\n    enum QueryStatus { INVALID, OK, NOT_AVAILABLE, DISAGREEMENT }\r\n    function query (bytes calldata input)\r\n        external payable returns (bytes32 output, uint256 updatedAt, QueryStatus status);\r\n    function queryPrice() external view returns (uint256);\r\n}\r\n\r\ncontract OracleExample {\r\n    uint256 public ethusd;\r\n\r\n    function update() public payable {\r\n        Oracle oracle = Oracle(0xa24dF0420dE1f3b8d740A52AAEB9d55d6D64478e);\r\n        (bytes32 raw,,) = oracle.query.value(oracle.queryPrice())(\"SPOTPX/ETH-USD\");\r\n        ethusd = uint256(raw);\r\n    }\r\n}",
  "sourcePath": "C:\\Projects\\Hackathons\\HackMoney\\dev\\front-end\\contracts\\bandprotocol\\Oracle.sol",
  "compiler": {
    "name": "solc",
    "version": "0.6.2+commit.bacdbe57.Emscripten.clang"
  },
  "schemaVersion": "3.1.0",
  "updatedAt": "2020-05-11T18:21:43.077Z",
  "devdoc": {
    "methods": {}
  },
  "userdoc": {
    "methods": {}
  }
}