{
  "contractName": "StreamTokenSender",
  "abi": [
    {
      "anonymous": false,
      "inputs": [
        {
          "indexed": false,
          "internalType": "address",
          "name": "operator",
          "type": "address"
        },
        {
          "indexed": false,
          "internalType": "address",
          "name": "from",
          "type": "address"
        },
        {
          "indexed": false,
          "internalType": "address",
          "name": "to",
          "type": "address"
        },
        {
          "indexed": false,
          "internalType": "uint256",
          "name": "amount",
          "type": "uint256"
        },
        {
          "indexed": false,
          "internalType": "bytes",
          "name": "userData",
          "type": "bytes"
        },
        {
          "indexed": false,
          "internalType": "bytes",
          "name": "operatorData",
          "type": "bytes"
        }
      ],
      "name": "DoneStuff",
      "type": "event"
    },
    {
      "inputs": [],
      "name": "TOKENS_SENDER_INTERFACE_HASH",
      "outputs": [
        {
          "internalType": "bytes32",
          "name": "",
          "type": "bytes32"
        }
      ],
      "stateMutability": "view",
      "type": "function"
    },
    {
      "inputs": [
        {
          "internalType": "bytes32",
          "name": "interfaceHash",
          "type": "bytes32"
        },
        {
          "internalType": "address",
          "name": "account",
          "type": "address"
        }
      ],
      "name": "canImplementInterfaceForAddress",
      "outputs": [
        {
          "internalType": "bytes32",
          "name": "",
          "type": "bytes32"
        }
      ],
      "stateMutability": "view",
      "type": "function"
    },
    {
      "inputs": [
        {
          "internalType": "address",
          "name": "account",
          "type": "address"
        }
      ],
      "name": "senderFor",
      "outputs": [],
      "stateMutability": "nonpayable",
      "type": "function"
    },
    {
      "inputs": [
        {
          "internalType": "address",
          "name": "operator",
          "type": "address"
        },
        {
          "internalType": "address",
          "name": "from",
          "type": "address"
        },
        {
          "internalType": "address",
          "name": "to",
          "type": "address"
        },
        {
          "internalType": "uint256",
          "name": "amount",
          "type": "uint256"
        },
        {
          "internalType": "bytes",
          "name": "userData",
          "type": "bytes"
        },
        {
          "internalType": "bytes",
          "name": "operatorData",
          "type": "bytes"
        }
      ],
      "name": "tokensToSend",
      "outputs": [],
      "stateMutability": "nonpayable",
      "type": "function"
    }
  ],
  "bytecode": "0x608060405234801561001057600080fd5b5061056b806100206000396000f3fe608060405234801561001057600080fd5b506004361061004c5760003560e01c8063249cb3fa14610051578063669b0532146100b357806375ab9782146100d1578063d2de647414610209575b600080fd5b61009d6004803603604081101561006757600080fd5b8101908080359060200190929190803573ffffffffffffffffffffffffffffffffffffffff16906020019092919050505061024d565b6040518082815260200191505060405180910390f35b6100bb610309565b6040518082815260200191505060405180910390f35b610207600480360360c08110156100e757600080fd5b81019080803573ffffffffffffffffffffffffffffffffffffffff169060200190929190803573ffffffffffffffffffffffffffffffffffffffff169060200190929190803573ffffffffffffffffffffffffffffffffffffffff169060200190929190803590602001909291908035906020019064010000000081111561016e57600080fd5b82018360208201111561018057600080fd5b803590602001918460018302840111640100000000831117156101a257600080fd5b9091929391929390803590602001906401000000008111156101c357600080fd5b8201836020820111156101d557600080fd5b803590602001918460018302840111640100000000831117156101f757600080fd5b9091929391929390505050610342565b005b61024b6004803603602081101561021f57600080fd5b81019080803573ffffffffffffffffffffffffffffffffffffffff169060200190929190505050610487565b005b600080600084815260200190815260200160002060008373ffffffffffffffffffffffffffffffffffffffff1673ffffffffffffffffffffffffffffffffffffffff16815260200190815260200160002060009054906101000a900460ff166102b9576000801b610301565b60405160200180807f455243313832305f4143434550545f4d414749430000000000000000000000008152506014019050604051602081830303815290604052805190602001205b905092915050565b60405180807f53747265616d546f6b656e53656e6465720000000000000000000000000000008152506011019050604051809103902081565b7fa0a5a35754b3519ae614f00422ac62a6bc4608ccb722963aab00cb48c588ad728888888888888888604051808973ffffffffffffffffffffffffffffffffffffffff1673ffffffffffffffffffffffffffffffffffffffff1681526020018873ffffffffffffffffffffffffffffffffffffffff1673ffffffffffffffffffffffffffffffffffffffff1681526020018773ffffffffffffffffffffffffffffffffffffffff1673ffffffffffffffffffffffffffffffffffffffff16815260200186815260200180602001806020018381038352878782818152602001925080828437600081840152601f19601f8201169050808301925050508381038252858582818152602001925080828437600081840152601f19601f8201169050808301925050509a505050505050505050505060405180910390a15050505050505050565b6104c660405180807f53747265616d546f6b656e53656e64657200000000000000000000000000000081525060110190506040518091039020826104c9565b50565b600160008084815260200190815260200160002060008373ffffffffffffffffffffffffffffffffffffffff1673ffffffffffffffffffffffffffffffffffffffff16815260200190815260200160002060006101000a81548160ff021916908315150217905550505056fea26469706673582212207807f793403d9a73a0744171044b7b71bffd000f5d8feff6673100b2603c809264736f6c63430006020033",
  "source": "pragma solidity  >=0.4.22 <0.7.0;\r\n\r\nimport \"@openzeppelin/contracts/token/ERC777/IERC777.sol\";\r\nimport \"@openzeppelin/contracts/introspection/IERC1820Registry.sol\";\r\nimport \"@openzeppelin/contracts/introspection/ERC1820Implementer.sol\";\r\nimport \"@openzeppelin/contracts/token/ERC777/IERC777Sender.sol\";\r\n\r\ncontract StreamTokenSender is IERC777Sender, ERC1820Implementer {\r\n\r\n    bytes32 constant public TOKENS_SENDER_INTERFACE_HASH = keccak256(\"StreamTokenSender\");\r\n\r\n    event DoneStuff(address operator, address from, address to, uint256 amount, bytes userData, bytes operatorData);\r\n\r\n    function senderFor(address account) public {\r\n        _registerInterfaceForAddress(TOKENS_SENDER_INTERFACE_HASH, account);\r\n    }\r\n\r\n    function tokensToSend(\r\n        address operator,\r\n        address from,\r\n        address to,\r\n        uint256 amount,\r\n        bytes calldata userData,\r\n        bytes calldata operatorData\r\n    ) external override {\r\n\r\n        // do stuff\r\n        emit DoneStuff(operator, from, to, amount, userData, operatorData);\r\n    }\r\n}",
  "sourcePath": "C:\\Projects\\Hackathons\\HackMoney\\dev\\front-end\\contracts\\token\\erc777\\StreamTokenSender.sol",
  "compiler": {
    "name": "solc",
    "version": "0.6.2+commit.bacdbe57.Emscripten.clang"
  },
  "schemaVersion": "3.1.0",
  "updatedAt": "2020-05-11T18:21:43.157Z",
  "devdoc": {
    "methods": {}
  },
  "userdoc": {
    "methods": {
      "canImplementInterfaceForAddress(bytes32,address)": {
        "notice": "See {IERC1820Implementer-canImplementInterfaceForAddress}."
      }
    }
  }
}