{
  "contractName": "ChainlinkGetEtherPrice",
  "abi": [
    {
      "inputs": [
        {
          "internalType": "address",
          "name": "_link",
          "type": "address"
        }
      ],
      "payable": false,
      "stateMutability": "nonpayable",
      "type": "constructor"
    },
    {
      "anonymous": false,
      "inputs": [
        {
          "indexed": true,
          "internalType": "bytes32",
          "name": "id",
          "type": "bytes32"
        }
      ],
      "name": "ChainlinkCancelled",
      "type": "event"
    },
    {
      "anonymous": false,
      "inputs": [
        {
          "indexed": true,
          "internalType": "bytes32",
          "name": "id",
          "type": "bytes32"
        }
      ],
      "name": "ChainlinkFulfilled",
      "type": "event"
    },
    {
      "anonymous": false,
      "inputs": [
        {
          "indexed": true,
          "internalType": "bytes32",
          "name": "id",
          "type": "bytes32"
        }
      ],
      "name": "ChainlinkRequested",
      "type": "event"
    },
    {
      "constant": true,
      "inputs": [],
      "name": "currentPrice",
      "outputs": [
        {
          "internalType": "uint256",
          "name": "",
          "type": "uint256"
        }
      ],
      "payable": false,
      "stateMutability": "view",
      "type": "function"
    },
    {
      "constant": true,
      "inputs": [],
      "name": "owner",
      "outputs": [
        {
          "internalType": "address",
          "name": "",
          "type": "address"
        }
      ],
      "payable": false,
      "stateMutability": "view",
      "type": "function"
    },
    {
      "constant": false,
      "inputs": [
        {
          "internalType": "address",
          "name": "_oracle",
          "type": "address"
        },
        {
          "internalType": "bytes32",
          "name": "_jobId",
          "type": "bytes32"
        },
        {
          "internalType": "uint256",
          "name": "_payment",
          "type": "uint256"
        }
      ],
      "name": "requestEthereumPrice",
      "outputs": [],
      "payable": false,
      "stateMutability": "nonpayable",
      "type": "function"
    },
    {
      "constant": false,
      "inputs": [
        {
          "internalType": "bytes32",
          "name": "_requestId",
          "type": "bytes32"
        },
        {
          "internalType": "uint256",
          "name": "_price",
          "type": "uint256"
        }
      ],
      "name": "fulfill",
      "outputs": [],
      "payable": false,
      "stateMutability": "nonpayable",
      "type": "function"
    },
    {
      "constant": false,
      "inputs": [
        {
          "internalType": "bytes32",
          "name": "_requestId",
          "type": "bytes32"
        },
        {
          "internalType": "uint256",
          "name": "_payment",
          "type": "uint256"
        },
        {
          "internalType": "bytes4",
          "name": "_callbackFunctionId",
          "type": "bytes4"
        },
        {
          "internalType": "uint256",
          "name": "_expiration",
          "type": "uint256"
        }
      ],
      "name": "cancelRequest",
      "outputs": [],
      "payable": false,
      "stateMutability": "nonpayable",
      "type": "function"
    },
    {
      "constant": false,
      "inputs": [],
      "name": "withdrawLink",
      "outputs": [],
      "payable": false,
      "stateMutability": "nonpayable",
      "type": "function"
    }
  ],
  "bytecode": "0x608060405260016004553480156200001657600080fd5b506040516200169538038062001695833981810160405260208110156200003c57600080fd5b8101908080519060200190929190505050600073ffffffffffffffffffffffffffffffffffffffff168173ffffffffffffffffffffffffffffffffffffffff161415620000da5762000093620000f360201b60201c565b33600660006101000a81548173ffffffffffffffffffffffffffffffffffffffff021916908373ffffffffffffffffffffffffffffffffffffffff160217905550620000ec565b620000eb816200019d60201b60201c565b5b50620001e1565b6200019b73c89bd4e1632d3a43cb03aaad5262cbe4038bc57173ffffffffffffffffffffffffffffffffffffffff166338cc48316040518163ffffffff1660e01b815260040160206040518083038186803b1580156200015257600080fd5b505afa15801562000167573d6000803e3d6000fd5b505050506040513d60208110156200017e57600080fd5b81019080805190602001909291905050506200019d60201b60201c565b565b80600260006101000a81548173ffffffffffffffffffffffffffffffffffffffff021916908373ffffffffffffffffffffffffffffffffffffffff16021790555050565b6114a480620001f16000396000f3fe608060405234801561001057600080fd5b50600436106100625760003560e01c806330524614146100675780634357855e146100bf5780638da5cb5b146100f75780638dc654a2146101415780639d1b464a1461014b578063ec65d0f814610169575b600080fd5b6100bd6004803603606081101561007d57600080fd5b81019080803573ffffffffffffffffffffffffffffffffffffffff16906020019092919080359060200190929190803590602001909291905050506101d4565b005b6100f5600480360360408110156100d557600080fd5b810190808035906020019092919080359060200190929190505050610388565b005b6100ff6104af565b604051808273ffffffffffffffffffffffffffffffffffffffff1673ffffffffffffffffffffffffffffffffffffffff16815260200191505060405180910390f35b6101496104d5565b005b610153610729565b6040518082815260200191505060405180910390f35b6101d26004803603608081101561017f57600080fd5b81019080803590602001909291908035906020019092919080357bffffffffffffffffffffffffffffffffffffffffffffffffffffffff191690602001909291908035906020019092919050505061072f565b005b600660009054906101000a900473ffffffffffffffffffffffffffffffffffffffff1673ffffffffffffffffffffffffffffffffffffffff163373ffffffffffffffffffffffffffffffffffffffff161461022e57600080fd5b610236611344565b6102488330634357855e60e01b61079b565b90506102ac6040518060400160405280600381526020017f67657400000000000000000000000000000000000000000000000000000000008152506040518060600160405280603f8152602001611409603f9139836107cc9092919063ffffffff16565b61032b6040518060400160405280600481526020017f70617468000000000000000000000000000000000000000000000000000000008152506040518060400160405280600381526020017f5553440000000000000000000000000000000000000000000000000000000000815250836107cc9092919063ffffffff16565b6103766040518060400160405280600581526020017f74696d65730000000000000000000000000000000000000000000000000000008152506064836107ff9092919063ffffffff16565b610381848284610832565b5050505050565b816005600082815260200190815260200160002060009054906101000a900473ffffffffffffffffffffffffffffffffffffffff1673ffffffffffffffffffffffffffffffffffffffff163373ffffffffffffffffffffffffffffffffffffffff1614610440576040517f08c379a00000000000000000000000000000000000000000000000000000000081526004018080602001828103825260288152602001806114486028913960400191505060405180910390fd5b6005600082815260200190815260200160002060006101000a81549073ffffffffffffffffffffffffffffffffffffffff0219169055807f7cc135e0cebb02c3480ae5d74d377283180a2601f8f644edf7987b009316c63a60405160405180910390a281600781905550505050565b600660009054906101000a900473ffffffffffffffffffffffffffffffffffffffff1681565b600660009054906101000a900473ffffffffffffffffffffffffffffffffffffffff1673ffffffffffffffffffffffffffffffffffffffff163373ffffffffffffffffffffffffffffffffffffffff161461052f57600080fd5b6000610539610aea565b90508073ffffffffffffffffffffffffffffffffffffffff1663a9059cbb338373ffffffffffffffffffffffffffffffffffffffff166370a08231306040518263ffffffff1660e01b8152600401808273ffffffffffffffffffffffffffffffffffffffff1673ffffffffffffffffffffffffffffffffffffffff16815260200191505060206040518083038186803b1580156105d557600080fd5b505afa1580156105e9573d6000803e3d6000fd5b505050506040513d60208110156105ff57600080fd5b81019080805190602001909291905050506040518363ffffffff1660e01b8152600401808373ffffffffffffffffffffffffffffffffffffffff1673ffffffffffffffffffffffffffffffffffffffff16815260200182815260200192505050602060405180830381600087803b15801561067957600080fd5b505af115801561068d573d6000803e3d6000fd5b505050506040513d60208110156106a357600080fd5b8101908080519060200190929190505050610726576040517f08c379a00000000000000000000000000000000000000000000000000000000081526004018080602001828103825260128152602001807f556e61626c6520746f207472616e73666572000000000000000000000000000081525060200191505060405180910390fd5b50565b60075481565b600660009054906101000a900473ffffffffffffffffffffffffffffffffffffffff1673ffffffffffffffffffffffffffffffffffffffff163373ffffffffffffffffffffffffffffffffffffffff161461078957600080fd5b61079584848484610b14565b50505050565b6107a3611344565b6107ab611344565b6107c285858584610c77909392919063ffffffff16565b9150509392505050565b6107e3828460800151610d2790919063ffffffff16565b6107fa818460800151610d2790919063ffffffff16565b505050565b610816828460800151610d2790919063ffffffff16565b61082d818460800151610d4c90919063ffffffff16565b505050565b600030600454604051602001808373ffffffffffffffffffffffffffffffffffffffff1673ffffffffffffffffffffffffffffffffffffffff1660601b815260140182815260200192505050604051602081830303815290604052805190602001209050600454836060018181525050836005600083815260200190815260200160002060006101000a81548173ffffffffffffffffffffffffffffffffffffffff021916908373ffffffffffffffffffffffffffffffffffffffff160217905550807fb5e6e01e79f91267dc17b4e6314d5d4d03593d2ceee0fbb452b750bd70ea5af960405160405180910390a2600260009054906101000a900473ffffffffffffffffffffffffffffffffffffffff1673ffffffffffffffffffffffffffffffffffffffff16634000aea0858461096a87610d98565b6040518463ffffffff1660e01b8152600401808473ffffffffffffffffffffffffffffffffffffffff1673ffffffffffffffffffffffffffffffffffffffff16815260200183815260200180602001828103825283818151815260200191508051906020019080838360005b838110156109f15780820151818401526020810190506109d6565b50505050905090810190601f168015610a1e5780820380516001836020036101000a031916815260200191505b50945050505050602060405180830381600087803b158015610a3f57600080fd5b505af1158015610a53573d6000803e3d6000fd5b505050506040513d6020811015610a6957600080fd5b8101908080519060200190929190505050610acf576040517f08c379a00000000000000000000000000000000000000000000000000000000081526004018080602001828103825260238152602001806113e66023913960400191505060405180910390fd5b60016004600082825401925050819055508090509392505050565b6000600260009054906101000a900473ffffffffffffffffffffffffffffffffffffffff16905090565b60006005600086815260200190815260200160002060009054906101000a900473ffffffffffffffffffffffffffffffffffffffff1690506005600086815260200190815260200160002060006101000a81549073ffffffffffffffffffffffffffffffffffffffff0219169055847fe1fe3afa0f7f761ff0a8b89086790efd5140d2907ebd5b7ff6bfcb5e075fd4c560405160405180910390a28073ffffffffffffffffffffffffffffffffffffffff16636ee4d553868686866040518563ffffffff1660e01b815260040180858152602001848152602001837bffffffffffffffffffffffffffffffffffffffffffffffffffffffff19167bffffffffffffffffffffffffffffffffffffffffffffffffffffffff19168152602001828152602001945050505050600060405180830381600087803b158015610c5857600080fd5b505af1158015610c6c573d6000803e3d6000fd5b505050505050505050565b610c7f611344565b610c8f8560800151610100610f9f565b508385600001818152505082856020019073ffffffffffffffffffffffffffffffffffffffff16908173ffffffffffffffffffffffffffffffffffffffff16815250508185604001907bffffffffffffffffffffffffffffffffffffffffffffffffffffffff191690817bffffffffffffffffffffffffffffffffffffffffffffffffffffffff191681525050849050949350505050565b610d348260038351610ff3565b610d47818361113890919063ffffffff16565b505050565b60008112610d6557610d6082600083610ff3565b610d94565b610d93826001837fffffffffffffffffffffffffffffffffffffffffffffffffffffffffffffffff03610ff3565b5b5050565b6060600360009054906101000a900473ffffffffffffffffffffffffffffffffffffffff1673ffffffffffffffffffffffffffffffffffffffff166340429946905060e01b60008084600001518560200151866040015187606001516001896080015160000151604051602401808973ffffffffffffffffffffffffffffffffffffffff1673ffffffffffffffffffffffffffffffffffffffff1681526020018881526020018781526020018673ffffffffffffffffffffffffffffffffffffffff1673ffffffffffffffffffffffffffffffffffffffff168152602001857bffffffffffffffffffffffffffffffffffffffffffffffffffffffff19167bffffffffffffffffffffffffffffffffffffffffffffffffffffffff1916815260200184815260200183815260200180602001828103825283818151815260200191508051906020019080838360005b83811015610f02578082015181840152602081019050610ee7565b50505050905090810190601f168015610f2f5780820380516001836020036101000a031916815260200191505b509950505050505050505050604051602081830303815290604052907bffffffffffffffffffffffffffffffffffffffffffffffffffffffff19166020820180517bffffffffffffffffffffffffffffffffffffffffffffffffffffffff83818316178352505050509050919050565b610fa76113b1565b600060208381610fb357fe5b0614610fcc5760208281610fc357fe5b06602003820191505b81836020018181525050604051808452600081528281016020016040525082905092915050565b601781116110205761101a8160058460ff16901b60ff16178461115a90919063ffffffff16565b50611133565b60ff811161106257611045601860058460ff16901b178461115a90919063ffffffff16565b5061105c8160018561117a9092919063ffffffff16565b50611132565b61ffff81116110a557611088601960058460ff16901b178461115a90919063ffffffff16565b5061109f8160028561117a9092919063ffffffff16565b50611131565b63ffffffff81116110ea576110cd601a60058460ff16901b178461115a90919063ffffffff16565b506110e48160048561117a9092919063ffffffff16565b50611130565b67ffffffffffffffff811161112f57611116601b60058460ff16901b178461115a90919063ffffffff16565b5061112d8160088561117a9092919063ffffffff16565b505b5b5b5b5b505050565b6111406113b1565b6111528384600001515184855161119c565b905092915050565b6111626113b1565b6111728384600001515184611255565b905092915050565b6111826113b1565b6111938485600001515185856112a3565b90509392505050565b6111a46113b1565b82518211156111b257600080fd5b846020015182850111156111dd576111dc8560026111d68860200151888701611304565b02611320565b5b6000808651805187602083010193508088870111156111fc5787860182525b60208701925050505b602084106112285780518252602082019150602081019050602084039350611205565b60006001856020036101000a03905080198251168184511681811785525050879350505050949350505050565b61125d6113b1565b8360200151831061127a57611279846002866020015102611320565b5b8351805160208583010184815381861415611296576001820183525b5050508390509392505050565b6112ab6113b1565b846020015184830111156112c9576112c885600286850102611320565b5b60006001836101000a03905085518386820101858319825116178152815185880111156112f65784870182525b505085915050949350505050565b6000818311156113165782905061131a565b8190505b92915050565b6060826000015190506113338383610f9f565b5061133e8382611138565b50505050565b6040518060a0016040528060008019168152602001600073ffffffffffffffffffffffffffffffffffffffff16815260200160007bffffffffffffffffffffffffffffffffffffffffffffffffffffffff19168152602001600081526020016113ab6113cb565b81525090565b604051806040016040528060608152602001600081525090565b60405180604001604052806060815260200160008152509056fe756e61626c6520746f207472616e73666572416e6443616c6c20746f206f7261636c6568747470733a2f2f6d696e2d6170692e63727970746f636f6d706172652e636f6d2f646174612f70726963653f6673796d3d455448267473796d733d555344536f75726365206d75737420626520746865206f7261636c65206f66207468652072657175657374a265627a7a723158200096705fc587d6e19723448ebed6968bb8f540813e81f289a1c62512997f1f1d64736f6c63430005100032",
  "source": "pragma solidity ^0.5.15;\r\n\r\nimport \"@chainlink/contracts/src/v0.5/ChainlinkClient.sol\";\r\nimport \"@chainlink/contracts/src/v0.5/vendor/Ownable.sol\";\r\n\r\n// ChainlinkGetEtherPrice inherits the Chainlinked contract to gain the\r\n// functionality of creating Chainlink requests.\r\ncontract ChainlinkGetEtherPrice is ChainlinkClient {\r\n    //uint256 public price;\r\n    address public owner;\r\n    uint256 public currentPrice;\r\n\r\n\r\n    constructor(address _link) public {\r\n        // Set the address for the LINK token for the network.\r\n        if(_link == address(0)) {\r\n            // Useful for deploying to public networks.\r\n            setPublicChainlinkToken();\r\n            owner = msg.sender;\r\n        } else {\r\n            // Useful if you're deploying to a local network.\r\n            setChainlinkToken(_link);\r\n        }\r\n    }\r\n    // Additional functions here:\r\n\r\n    // Creates a Chainlink request with the uint256 multiplier job\r\n    function requestEthereumPrice(address _oracle, bytes32 _jobId, uint256 _payment)\r\n        public\r\n        onlyOwner\r\n    {\r\n        // newRequest takes a JobID, a callback address, and callback function as input\r\n        Chainlink.Request memory req = buildChainlinkRequest(_jobId, address(this), this.fulfill.selector);\r\n        // Adds a URL with the key \"get\" to the request parameters\r\n        req.add(\"get\", \"https://min-api.cryptocompare.com/data/price?fsym=ETH&tsyms=USD\");\r\n        // Uses input param (dot-delimited string) as the \"path\" in the request parameters\r\n        req.add(\"path\", \"USD\");\r\n        // Adds an integer with the key \"times\" to the request parameters\r\n        req.addInt(\"times\", 100);\r\n        // Sends the request with the amount of payment specified to the oracle\r\n        sendChainlinkRequestTo(_oracle, req, _payment);\r\n    }\r\n\r\n    // fulfill receives a uint256 data type\r\n    function fulfill(bytes32 _requestId, uint256 _price)\r\n        public\r\n        // Use recordChainlinkFulfillment to ensure only the requesting oracle can fulfill\r\n        recordChainlinkFulfillment(_requestId)\r\n    {\r\n        currentPrice = _price;\r\n    }\r\n\r\n    // cancelRequest allows the owner to cancel an unfulfilled request\r\n    function cancelRequest(\r\n        bytes32 _requestId,\r\n        uint256 _payment,\r\n        bytes4 _callbackFunctionId,\r\n        uint256 _expiration\r\n    )\r\n        public\r\n        onlyOwner\r\n    {\r\n        cancelChainlinkRequest(_requestId, _payment, _callbackFunctionId, _expiration);\r\n    }\r\n\r\n\r\n    // withdrawLink allows the owner to withdraw any extra LINK on the contract\r\n    function withdrawLink()\r\n        public\r\n        onlyOwner\r\n    {\r\n        LinkTokenInterface link = LinkTokenInterface(chainlinkTokenAddress());\r\n        require(link.transfer(msg.sender, link.balanceOf(address(this))), \"Unable to transfer\");\r\n    }\r\n\r\n    modifier onlyOwner() {\r\n        require(msg.sender == owner);\r\n        _;\r\n    }\r\n\r\n\r\n\r\n}",
  "sourcePath": "C:\\Projects\\Hack Money\\hackmoney\\app\\contracts\\cross-chain\\ChainlinkGetEtherPrice.sol",
  "compiler": {
    "name": "solc",
    "version": "0.5.16+commit.9c3226ce.Emscripten.clang"
  },
  "schemaVersion": "3.0.23",
  "updatedAt": "2020-04-26T19:36:10.198Z",
  "devdoc": {
    "methods": {}
  },
  "userdoc": {
    "methods": {}
  }
}