{
  "contractName": "Faucet",
  "abi": [
    {
      "inputs": [],
      "payable": true,
      "stateMutability": "payable",
      "type": "constructor"
    },
    {
      "anonymous": false,
      "inputs": [],
      "name": "Received",
      "type": "event"
    },
    {
      "anonymous": false,
      "inputs": [
        {
          "indexed": false,
          "internalType": "address",
          "name": "_address",
          "type": "address"
        },
        {
          "indexed": false,
          "internalType": "uint256",
          "name": "_amount",
          "type": "uint256"
        }
      ],
      "name": "Sent",
      "type": "event"
    },
    {
      "constant": true,
      "inputs": [],
      "name": "faucet",
      "outputs": [
        {
          "internalType": "address",
          "name": "",
          "type": "address"
        }
      ],
      "payable": false,
      "stateMutability": "view",
      "type": "function"
    },
    {
      "constant": true,
      "inputs": [
        {
          "internalType": "uint256",
          "name": "",
          "type": "uint256"
        }
      ],
      "name": "requestors",
      "outputs": [
        {
          "internalType": "address",
          "name": "requestorAddress",
          "type": "address"
        },
        {
          "internalType": "uint256",
          "name": "amountRequested",
          "type": "uint256"
        }
      ],
      "payable": false,
      "stateMutability": "view",
      "type": "function"
    },
    {
      "constant": false,
      "inputs": [],
      "name": "receive",
      "outputs": [],
      "payable": true,
      "stateMutability": "payable",
      "type": "function"
    },
    {
      "constant": false,
      "inputs": [
        {
          "internalType": "address payable",
          "name": "_requestor",
          "type": "address"
        },
        {
          "internalType": "uint256",
          "name": "_request",
          "type": "uint256"
        }
      ],
      "name": "send",
      "outputs": [],
      "payable": true,
      "stateMutability": "payable",
      "type": "function"
    }
  ],
  "bytecode": "0x6080604052336000806101000a81548173ffffffffffffffffffffffffffffffffffffffff021916908373ffffffffffffffffffffffffffffffffffffffff160217905550610491806100536000396000f3fe60806040526004361061003f5760003560e01c80632906a07914610044578063a3e76c0f146100c6578063d0679d34146100d0578063de5f72fd1461011e575b600080fd5b34801561005057600080fd5b5061007d6004803603602081101561006757600080fd5b8101908080359060200190929190505050610175565b604051808373ffffffffffffffffffffffffffffffffffffffff1673ffffffffffffffffffffffffffffffffffffffff1681526020018281526020019250505060405180910390f35b6100ce6101c6565b005b61011c600480360360408110156100e657600080fd5b81019080803573ffffffffffffffffffffffffffffffffffffffff169060200190929190803590602001909291905050506101f4565b005b34801561012a57600080fd5b50610133610407565b604051808273ffffffffffffffffffffffffffffffffffffffff1673ffffffffffffffffffffffffffffffffffffffff16815260200191505060405180910390f35b6001818154811061018257fe5b90600052602060002090600202016000915090508060000160009054906101000a900473ffffffffffffffffffffffffffffffffffffffff16908060010154905082565b7f544c765b33ca411cce832250371569244f765a17fcd217832be093f0fd5fa45b60405160405180910390a1565b6000809050670de0b6b3a7640000820291508147111561026e57670de0b6b3a7640000828161021f57fe5b0490508273ffffffffffffffffffffffffffffffffffffffff166108fc839081150290604051600060405180830381858888f19350505050158015610268573d6000803e3d6000fd5b506102ca565b670de0b6b3a7640000478161027f57fe5b0490508273ffffffffffffffffffffffffffffffffffffffff166108fc479081150290604051600060405180830381858888f193505050501580156102c8573d6000803e3d6000fd5b505b6102d261042c565b83816000019073ffffffffffffffffffffffffffffffffffffffff16908173ffffffffffffffffffffffffffffffffffffffff1681525050818160200181815250506001819080600181540180825580915050906001820390600052602060002090600202016000909192909190915060008201518160000160006101000a81548173ffffffffffffffffffffffffffffffffffffffff021916908373ffffffffffffffffffffffffffffffffffffffff160217905550602082015181600101555050507f510ffb4dcab972ae9d2007a58e13f1b0881776d23cd8f5cc32f8c5be2dbf70d28483604051808373ffffffffffffffffffffffffffffffffffffffff1673ffffffffffffffffffffffffffffffffffffffff1681526020018281526020019250505060405180910390a150505050565b6000809054906101000a900473ffffffffffffffffffffffffffffffffffffffff1681565b6040518060400160405280600073ffffffffffffffffffffffffffffffffffffffff16815260200160008152509056fea265627a7a72315820a1399743cf65431e5559b8854101b0bbf5e9bd424ba9ba3d345cd89b3386be5064736f6c63430005100032",
  "source": "pragma solidity ^0.5.15;\r\n\r\ncontract Faucet {\r\n    address public faucet;\r\n\r\n    struct Requestor {\r\n        address requestorAddress;\r\n        uint256 amountRequested;\r\n    }\r\n\r\n    Requestor[] public requestors;\r\n\r\n    constructor () public payable {\r\n        faucet = msg.sender;\r\n    }\r\n\r\n    event Sent(address _address, uint256 _amount);\r\n    event Received();\r\n\r\n    function receive ()\r\n        public\r\n        payable\r\n    {\r\n        emit Received();\r\n    }\r\n\r\n    function send (address payable _requestor, uint256 _request)\r\n        public payable\r\n    {\r\n        uint256 amountSent = 0;\r\n        // covert to wei\r\n        _request = _request * 1e18;\r\n\r\n        if(address(this).balance > _request) {\r\n            amountSent = _request/1e18;\r\n            _requestor.transfer(_request);\r\n        } else {\r\n            amountSent = (address(this).balance)/1e18;\r\n            _requestor.transfer(address(this).balance);\r\n        }\r\n\r\n        Requestor memory r;\r\n        r.requestorAddress = _requestor;\r\n        r.amountRequested = amountSent;\r\n        requestors.push(r);\r\n        emit Sent(_requestor, amountSent);\r\n    }\r\n\r\n}",
  "sourcePath": "C:\\Projects\\Hack Money\\hackmoney\\app\\contracts\\utility\\Faucet.sol",
  "compiler": {
    "name": "solc",
    "version": "0.5.16+commit.9c3226ce.Emscripten.clang"
  },
  "schemaVersion": "3.0.23",
  "updatedAt": "2020-04-26T19:36:10.202Z",
  "devdoc": {
    "methods": {}
  },
  "userdoc": {
    "methods": {}
  }
}