{
  "contractName": "IOneSplitConsts",
  "abi": [
    {
      "constant": true,
      "inputs": [],
      "name": "FLAG_DISABLE_AAVE",
      "outputs": [
        {
          "internalType": "uint256",
          "name": "",
          "type": "uint256"
        }
      ],
      "payable": false,
      "stateMutability": "view",
      "type": "function"
    },
    {
      "constant": true,
      "inputs": [],
      "name": "FLAG_DISABLE_BANCOR",
      "outputs": [
        {
          "internalType": "uint256",
          "name": "",
          "type": "uint256"
        }
      ],
      "payable": false,
      "stateMutability": "view",
      "type": "function"
    },
    {
      "constant": true,
      "inputs": [],
      "name": "FLAG_DISABLE_BDAI",
      "outputs": [
        {
          "internalType": "uint256",
          "name": "",
          "type": "uint256"
        }
      ],
      "payable": false,
      "stateMutability": "view",
      "type": "function"
    },
    {
      "constant": true,
      "inputs": [],
      "name": "FLAG_DISABLE_CHAI",
      "outputs": [
        {
          "internalType": "uint256",
          "name": "",
          "type": "uint256"
        }
      ],
      "payable": false,
      "stateMutability": "view",
      "type": "function"
    },
    {
      "constant": true,
      "inputs": [],
      "name": "FLAG_DISABLE_COMPOUND",
      "outputs": [
        {
          "internalType": "uint256",
          "name": "",
          "type": "uint256"
        }
      ],
      "payable": false,
      "stateMutability": "view",
      "type": "function"
    },
    {
      "constant": true,
      "inputs": [],
      "name": "FLAG_DISABLE_CURVE_BINANCE",
      "outputs": [
        {
          "internalType": "uint256",
          "name": "",
          "type": "uint256"
        }
      ],
      "payable": false,
      "stateMutability": "view",
      "type": "function"
    },
    {
      "constant": true,
      "inputs": [],
      "name": "FLAG_DISABLE_CURVE_COMPOUND",
      "outputs": [
        {
          "internalType": "uint256",
          "name": "",
          "type": "uint256"
        }
      ],
      "payable": false,
      "stateMutability": "view",
      "type": "function"
    },
    {
      "constant": true,
      "inputs": [],
      "name": "FLAG_DISABLE_CURVE_SYNTHETIX",
      "outputs": [
        {
          "internalType": "uint256",
          "name": "",
          "type": "uint256"
        }
      ],
      "payable": false,
      "stateMutability": "view",
      "type": "function"
    },
    {
      "constant": true,
      "inputs": [],
      "name": "FLAG_DISABLE_CURVE_USDT",
      "outputs": [
        {
          "internalType": "uint256",
          "name": "",
          "type": "uint256"
        }
      ],
      "payable": false,
      "stateMutability": "view",
      "type": "function"
    },
    {
      "constant": true,
      "inputs": [],
      "name": "FLAG_DISABLE_CURVE_Y",
      "outputs": [
        {
          "internalType": "uint256",
          "name": "",
          "type": "uint256"
        }
      ],
      "payable": false,
      "stateMutability": "view",
      "type": "function"
    },
    {
      "constant": true,
      "inputs": [],
      "name": "FLAG_DISABLE_FULCRUM",
      "outputs": [
        {
          "internalType": "uint256",
          "name": "",
          "type": "uint256"
        }
      ],
      "payable": false,
      "stateMutability": "view",
      "type": "function"
    },
    {
      "constant": true,
      "inputs": [],
      "name": "FLAG_DISABLE_IDLE",
      "outputs": [
        {
          "internalType": "uint256",
          "name": "",
          "type": "uint256"
        }
      ],
      "payable": false,
      "stateMutability": "view",
      "type": "function"
    },
    {
      "constant": true,
      "inputs": [],
      "name": "FLAG_DISABLE_IEARN",
      "outputs": [
        {
          "internalType": "uint256",
          "name": "",
          "type": "uint256"
        }
      ],
      "payable": false,
      "stateMutability": "view",
      "type": "function"
    },
    {
      "constant": true,
      "inputs": [],
      "name": "FLAG_DISABLE_KYBER",
      "outputs": [
        {
          "internalType": "uint256",
          "name": "",
          "type": "uint256"
        }
      ],
      "payable": false,
      "stateMutability": "view",
      "type": "function"
    },
    {
      "constant": true,
      "inputs": [],
      "name": "FLAG_DISABLE_OASIS",
      "outputs": [
        {
          "internalType": "uint256",
          "name": "",
          "type": "uint256"
        }
      ],
      "payable": false,
      "stateMutability": "view",
      "type": "function"
    },
    {
      "constant": true,
      "inputs": [],
      "name": "FLAG_DISABLE_SMART_TOKEN",
      "outputs": [
        {
          "internalType": "uint256",
          "name": "",
          "type": "uint256"
        }
      ],
      "payable": false,
      "stateMutability": "view",
      "type": "function"
    },
    {
      "constant": true,
      "inputs": [],
      "name": "FLAG_DISABLE_UNISWAP",
      "outputs": [
        {
          "internalType": "uint256",
          "name": "",
          "type": "uint256"
        }
      ],
      "payable": false,
      "stateMutability": "view",
      "type": "function"
    },
    {
      "constant": true,
      "inputs": [],
      "name": "FLAG_DISABLE_WETH",
      "outputs": [
        {
          "internalType": "uint256",
          "name": "",
          "type": "uint256"
        }
      ],
      "payable": false,
      "stateMutability": "view",
      "type": "function"
    },
    {
      "constant": true,
      "inputs": [],
      "name": "FLAG_ENABLE_KYBER_BANCOR_RESERVE",
      "outputs": [
        {
          "internalType": "uint256",
          "name": "",
          "type": "uint256"
        }
      ],
      "payable": false,
      "stateMutability": "view",
      "type": "function"
    },
    {
      "constant": true,
      "inputs": [],
      "name": "FLAG_ENABLE_KYBER_OASIS_RESERVE",
      "outputs": [
        {
          "internalType": "uint256",
          "name": "",
          "type": "uint256"
        }
      ],
      "payable": false,
      "stateMutability": "view",
      "type": "function"
    },
    {
      "constant": true,
      "inputs": [],
      "name": "FLAG_ENABLE_KYBER_UNISWAP_RESERVE",
      "outputs": [
        {
          "internalType": "uint256",
          "name": "",
          "type": "uint256"
        }
      ],
      "payable": false,
      "stateMutability": "view",
      "type": "function"
    },
    {
      "constant": true,
      "inputs": [],
      "name": "FLAG_ENABLE_MULTI_PATH_DAI",
      "outputs": [
        {
          "internalType": "uint256",
          "name": "",
          "type": "uint256"
        }
      ],
      "payable": false,
      "stateMutability": "view",
      "type": "function"
    },
    {
      "constant": true,
      "inputs": [],
      "name": "FLAG_ENABLE_MULTI_PATH_ETH",
      "outputs": [
        {
          "internalType": "uint256",
          "name": "",
          "type": "uint256"
        }
      ],
      "payable": false,
      "stateMutability": "view",
      "type": "function"
    },
    {
      "constant": true,
      "inputs": [],
      "name": "FLAG_ENABLE_MULTI_PATH_USDC",
      "outputs": [
        {
          "internalType": "uint256",
          "name": "",
          "type": "uint256"
        }
      ],
      "payable": false,
      "stateMutability": "view",
      "type": "function"
    },
    {
      "constant": true,
      "inputs": [],
      "name": "FLAG_ENABLE_UNISWAP_AAVE",
      "outputs": [
        {
          "internalType": "uint256",
          "name": "",
          "type": "uint256"
        }
      ],
      "payable": false,
      "stateMutability": "view",
      "type": "function"
    },
    {
      "constant": true,
      "inputs": [],
      "name": "FLAG_ENABLE_UNISWAP_CHAI",
      "outputs": [
        {
          "internalType": "uint256",
          "name": "",
          "type": "uint256"
        }
      ],
      "payable": false,
      "stateMutability": "view",
      "type": "function"
    },
    {
      "constant": true,
      "inputs": [],
      "name": "FLAG_ENABLE_UNISWAP_COMPOUND",
      "outputs": [
        {
          "internalType": "uint256",
          "name": "",
          "type": "uint256"
        }
      ],
      "payable": false,
      "stateMutability": "view",
      "type": "function"
    }
  ],
  "bytecode": "0x608060405234801561001057600080fd5b506105b8806100206000396000f3fe608060405234801561001057600080fd5b50600436106101a95760003560e01c806368e2a014116100f9578063c762a46c11610097578063c9b42c6711610071578063c9b42c6714610460578063d393c3e91461047e578063dc1536b21461049c578063f56e281f146104ba576101a9565b8063c762a46c14610406578063c77b9de614610424578063c989b66714610442576101a9565b80637a88bdbd116100d35780637a88bdbd1461038e5780637e09b9c2146103ac578063b0a7ef29146103ca578063b3bc7844146103e8576101a9565b806368e2a014146103345780636cbc4a6e1461035257806375a8b01214610370576101a9565b806334b4dabb116101665780635aa8fb48116101405780635aa8fb48146102bc5780635ae51b82146102da5780635c0cb479146102f857806364ec4e5c14610316576101a9565b806334b4dabb1461026257806344211d62146102805780634a7101d51461029e576101a9565b806305d8aa0a146101ae57806313989140146101cc5780632113240d146101ea57806321a360f5146102085780632d3b5207146102265780632e707bd214610244575b600080fd5b6101b66104d8565b6040518082815260200191505060405180910390f35b6101d46104df565b6040518082815260200191505060405180910390f35b6101f26104e5565b6040518082815260200191505060405180910390f35b6102106104eb565b6040518082815260200191505060405180910390f35b61022e6104f4565b6040518082815260200191505060405180910390f35b61024c6104fd565b6040518082815260200191505060405180910390f35b61026a610502565b6040518082815260200191505060405180910390f35b610288610507565b6040518082815260200191505060405180910390f35b6102a661050c565b6040518082815260200191505060405180910390f35b6102c4610511565b6040518082815260200191505060405180910390f35b6102e2610517565b6040518082815260200191505060405180910390f35b61030061051d565b6040518082815260200191505060405180910390f35b61031e610522565b6040518082815260200191505060405180910390f35b61033c610529565b6040518082815260200191505060405180910390f35b61035a610530565b6040518082815260200191505060405180910390f35b610378610537565b6040518082815260200191505060405180910390f35b61039661053d565b6040518082815260200191505060405180910390f35b6103b4610542565b6040518082815260200191505060405180910390f35b6103d2610549565b6040518082815260200191505060405180910390f35b6103f061054f565b6040518082815260200191505060405180910390f35b61040e610558565b6040518082815260200191505060405180910390f35b61042c61055d565b6040518082815260200191505060405180910390f35b61044a610563565b6040518082815260200191505060405180910390f35b61046861056a565b6040518082815260200191505060405180910390f35b610486610571565b6040518082815260200191505060405180910390f35b6104a4610578565b6040518082815260200191505060405180910390f35b6104c261057e565b6040518082815260200191505060405180910390f35b6220000081565b61200081565b61800081565b64020000000081565b64010000000081565b608081565b604081565b601081565b602081565b61400081565b61080081565b600881565b6202000081565b6210000081565b6208000081565b61040081565b600281565b6240000081565b61100081565b64040000000081565b600181565b61020081565b6280000081565b6204000081565b6201000081565b61010081565b60048156fea265627a7a7231582059f1abce9881303dca735559b8e2e8c48f37f6582174cf5a0d4295ae7b7008c164736f6c63430005100032",
  "source": "pragma solidity ^0.5.0;\n\nimport \"@openzeppelin/contracts/token/ERC20/IERC20.sol\";\n\n\ncontract IOneSplitConsts {\n    // disableFlags = FLAG_DISABLE_UNISWAP + FLAG_DISABLE_KYBER + ...\n    uint256 public constant FLAG_DISABLE_UNISWAP = 0x01;\n    uint256 public constant FLAG_DISABLE_KYBER = 0x02;\n    uint256 public constant FLAG_ENABLE_KYBER_UNISWAP_RESERVE = 0x100000000; // Turned off by default\n    uint256 public constant FLAG_ENABLE_KYBER_OASIS_RESERVE = 0x200000000; // Turned off by default\n    uint256 public constant FLAG_ENABLE_KYBER_BANCOR_RESERVE = 0x400000000; // Turned off by default\n    uint256 public constant FLAG_DISABLE_BANCOR = 0x04;\n    uint256 public constant FLAG_DISABLE_OASIS = 0x08;\n    uint256 public constant FLAG_DISABLE_COMPOUND = 0x10;\n    uint256 public constant FLAG_DISABLE_FULCRUM = 0x20;\n    uint256 public constant FLAG_DISABLE_CHAI = 0x40;\n    uint256 public constant FLAG_DISABLE_AAVE = 0x80;\n    uint256 public constant FLAG_DISABLE_SMART_TOKEN = 0x100;\n    uint256 public constant FLAG_ENABLE_MULTI_PATH_ETH = 0x200; // Turned off by default\n    uint256 public constant FLAG_DISABLE_BDAI = 0x400;\n    uint256 public constant FLAG_DISABLE_IEARN = 0x800;\n    uint256 public constant FLAG_DISABLE_CURVE_COMPOUND = 0x1000;\n    uint256 public constant FLAG_DISABLE_CURVE_USDT = 0x2000;\n    uint256 public constant FLAG_DISABLE_CURVE_Y = 0x4000;\n    uint256 public constant FLAG_DISABLE_CURVE_BINANCE = 0x8000;\n    uint256 public constant FLAG_ENABLE_MULTI_PATH_DAI = 0x10000; // Turned off by default\n    uint256 public constant FLAG_ENABLE_MULTI_PATH_USDC = 0x20000; // Turned off by default\n    uint256 public constant FLAG_DISABLE_CURVE_SYNTHETIX = 0x40000;\n    uint256 public constant FLAG_DISABLE_WETH = 0x80000;\n    uint256 public constant FLAG_ENABLE_UNISWAP_COMPOUND = 0x100000; // Works only when one of assets is ETH or FLAG_ENABLE_MULTI_PATH_ETH\n    uint256 public constant FLAG_ENABLE_UNISWAP_CHAI = 0x200000; // Works only when ETH<>DAI or FLAG_ENABLE_MULTI_PATH_ETH\n    uint256 public constant FLAG_ENABLE_UNISWAP_AAVE = 0x400000; // Works only when one of assets is ETH or FLAG_ENABLE_MULTI_PATH_ETH\n    uint256 public constant FLAG_DISABLE_IDLE = 0x800000;\n}\n\n\ncontract IOneSplit is IOneSplitConsts {\n    function getExpectedReturn(\n        IERC20 fromToken,\n        IERC20 toToken,\n        uint256 amount,\n        uint256 parts,\n        uint256 disableFlags\n    )\n        public\n        view\n        returns(\n            uint256 returnAmount,\n            uint256[] memory distribution\n        );\n\n    function swap(\n        IERC20 fromToken,\n        IERC20 toToken,\n        uint256 amount,\n        uint256 minReturn,\n        uint256[] memory distribution,\n        uint256 disableFlags\n    ) public payable;\n}\n",
  "sourcePath": "@studydefi/money-legos/onesplit/contracts/IOneSplit.sol",
  "compiler": {
    "name": "solc",
    "version": "0.5.16+commit.9c3226ce.Emscripten.clang"
  },
  "schemaVersion": "3.0.23",
  "updatedAt": "2020-04-26T19:36:10.244Z",
  "devdoc": {
    "methods": {}
  },
  "userdoc": {
    "methods": {}
  }
}